{
  "contractName": "VanityNameRegistrar",
  "abi": [
    {
      "inputs": [
        {
          "internalType": "uint256",
          "name": "_gracePeriod",
          "type": "uint256"
        }
      ],
      "stateMutability": "nonpayable",
      "type": "constructor"
    },
    {
      "anonymous": false,
      "inputs": [
        {
          "indexed": true,
          "internalType": "address",
          "name": "owner",
          "type": "address"
        },
        {
          "indexed": true,
          "internalType": "address",
          "name": "approved",
          "type": "address"
        },
        {
          "indexed": true,
          "internalType": "uint256",
          "name": "tokenId",
          "type": "uint256"
        }
      ],
      "name": "Approval",
      "type": "event"
    },
    {
      "anonymous": false,
      "inputs": [
        {
          "indexed": true,
          "internalType": "address",
          "name": "owner",
          "type": "address"
        },
        {
          "indexed": true,
          "internalType": "address",
          "name": "operator",
          "type": "address"
        },
        {
          "indexed": false,
          "internalType": "bool",
          "name": "approved",
          "type": "bool"
        }
      ],
      "name": "ApprovalForAll",
      "type": "event"
    },
    {
      "anonymous": false,
      "inputs": [
        {
          "indexed": true,
          "internalType": "address",
          "name": "controller",
          "type": "address"
        }
      ],
      "name": "ControllerChanged",
      "type": "event"
    },
    {
      "anonymous": false,
      "inputs": [
        {
          "indexed": true,
          "internalType": "uint256",
          "name": "gracePeriod",
          "type": "uint256"
        }
      ],
      "name": "GracePeriodChanged",
      "type": "event"
    },
    {
      "anonymous": false,
      "inputs": [
        {
          "indexed": true,
          "internalType": "uint256",
          "name": "id",
          "type": "uint256"
        },
        {
          "indexed": true,
          "internalType": "address",
          "name": "owner",
          "type": "address"
        },
        {
          "indexed": false,
          "internalType": "uint256",
          "name": "expires",
          "type": "uint256"
        }
      ],
      "name": "NameRegistered",
      "type": "event"
    },
    {
      "anonymous": false,
      "inputs": [
        {
          "indexed": true,
          "internalType": "uint256",
          "name": "id",
          "type": "uint256"
        },
        {
          "indexed": false,
          "internalType": "uint256",
          "name": "expires",
          "type": "uint256"
        }
      ],
      "name": "NameRenewed",
      "type": "event"
    },
    {
      "anonymous": false,
      "inputs": [
        {
          "indexed": true,
          "internalType": "address",
          "name": "previousOwner",
          "type": "address"
        },
        {
          "indexed": true,
          "internalType": "address",
          "name": "newOwner",
          "type": "address"
        }
      ],
      "name": "OwnershipTransferred",
      "type": "event"
    },
    {
      "anonymous": false,
      "inputs": [
        {
          "indexed": true,
          "internalType": "address",
          "name": "from",
          "type": "address"
        },
        {
          "indexed": true,
          "internalType": "address",
          "name": "to",
          "type": "address"
        },
        {
          "indexed": true,
          "internalType": "uint256",
          "name": "tokenId",
          "type": "uint256"
        }
      ],
      "name": "Transfer",
      "type": "event"
    },
    {
      "inputs": [
        {
          "internalType": "address",
          "name": "to",
          "type": "address"
        },
        {
          "internalType": "uint256",
          "name": "tokenId",
          "type": "uint256"
        }
      ],
      "name": "approve",
      "outputs": [],
      "stateMutability": "nonpayable",
      "type": "function"
    },
    {
      "inputs": [
        {
          "internalType": "address",
          "name": "owner",
          "type": "address"
        }
      ],
      "name": "balanceOf",
      "outputs": [
        {
          "internalType": "uint256",
          "name": "",
          "type": "uint256"
        }
      ],
      "stateMutability": "view",
      "type": "function"
    },
    {
      "inputs": [
        {
          "internalType": "uint256",
          "name": "tokenId",
          "type": "uint256"
        }
      ],
      "name": "getApproved",
      "outputs": [
        {
          "internalType": "address",
          "name": "",
          "type": "address"
        }
      ],
      "stateMutability": "view",
      "type": "function"
    },
    {
      "inputs": [
        {
          "internalType": "address",
          "name": "owner",
          "type": "address"
        },
        {
          "internalType": "address",
          "name": "operator",
          "type": "address"
        }
      ],
      "name": "isApprovedForAll",
      "outputs": [
        {
          "internalType": "bool",
          "name": "",
          "type": "bool"
        }
      ],
      "stateMutability": "view",
      "type": "function"
    },
    {
      "inputs": [],
      "name": "name",
      "outputs": [
        {
          "internalType": "string",
          "name": "",
          "type": "string"
        }
      ],
      "stateMutability": "view",
      "type": "function"
    },
    {
      "inputs": [],
      "name": "owner",
      "outputs": [
        {
          "internalType": "address",
          "name": "",
          "type": "address"
        }
      ],
      "stateMutability": "view",
      "type": "function"
    },
    {
      "inputs": [
        {
          "internalType": "uint256",
          "name": "tokenId",
          "type": "uint256"
        }
      ],
      "name": "ownerOf",
      "outputs": [
        {
          "internalType": "address",
          "name": "",
          "type": "address"
        }
      ],
      "stateMutability": "view",
      "type": "function"
    },
    {
      "inputs": [],
      "name": "renounceOwnership",
      "outputs": [],
      "stateMutability": "nonpayable",
      "type": "function"
    },
    {
      "inputs": [
        {
          "internalType": "address",
          "name": "operator",
          "type": "address"
        },
        {
          "internalType": "bool",
          "name": "approved",
          "type": "bool"
        }
      ],
      "name": "setApprovalForAll",
      "outputs": [],
      "stateMutability": "nonpayable",
      "type": "function"
    },
    {
      "inputs": [
        {
          "internalType": "bytes4",
          "name": "interfaceId",
          "type": "bytes4"
        }
      ],
      "name": "supportsInterface",
      "outputs": [
        {
          "internalType": "bool",
          "name": "",
          "type": "bool"
        }
      ],
      "stateMutability": "view",
      "type": "function"
    },
    {
      "inputs": [],
      "name": "symbol",
      "outputs": [
        {
          "internalType": "string",
          "name": "",
          "type": "string"
        }
      ],
      "stateMutability": "view",
      "type": "function"
    },
    {
      "inputs": [
        {
          "internalType": "uint256",
          "name": "tokenId",
          "type": "uint256"
        }
      ],
      "name": "tokenURI",
      "outputs": [
        {
          "internalType": "string",
          "name": "",
          "type": "string"
        }
      ],
      "stateMutability": "view",
      "type": "function"
    },
    {
      "inputs": [
        {
          "internalType": "address",
          "name": "newOwner",
          "type": "address"
        }
      ],
      "name": "transferOwnership",
      "outputs": [],
      "stateMutability": "nonpayable",
      "type": "function"
    },
    {
      "inputs": [
        {
          "internalType": "address",
          "name": "from",
          "type": "address"
        },
        {
          "internalType": "address",
          "name": "to",
          "type": "address"
        },
        {
          "internalType": "uint256",
          "name": "tokenId",
          "type": "uint256"
        }
      ],
      "name": "transferFrom",
      "outputs": [],
      "stateMutability": "nonpayable",
      "type": "function"
    },
    {
      "inputs": [
        {
          "internalType": "address",
          "name": "from",
          "type": "address"
        },
        {
          "internalType": "address",
          "name": "to",
          "type": "address"
        },
        {
          "internalType": "uint256",
          "name": "tokenId",
          "type": "uint256"
        }
      ],
      "name": "safeTransferFrom",
      "outputs": [],
      "stateMutability": "nonpayable",
      "type": "function"
    },
    {
      "inputs": [
        {
          "internalType": "address",
          "name": "from",
          "type": "address"
        },
        {
          "internalType": "address",
          "name": "to",
          "type": "address"
        },
        {
          "internalType": "uint256",
          "name": "tokenId",
          "type": "uint256"
        },
        {
          "internalType": "bytes",
          "name": "_data",
          "type": "bytes"
        }
      ],
      "name": "safeTransferFrom",
      "outputs": [],
      "stateMutability": "nonpayable",
      "type": "function"
    },
    {
      "inputs": [
        {
          "internalType": "address",
          "name": "_controller",
          "type": "address"
        }
      ],
      "name": "setController",
      "outputs": [],
      "stateMutability": "nonpayable",
      "type": "function"
    },
    {
      "inputs": [
        {
          "internalType": "uint256",
          "name": "_gracePeriod",
          "type": "uint256"
        }
      ],
      "name": "setGracePeriod",
      "outputs": [],
      "stateMutability": "nonpayable",
      "type": "function"
    },
    {
      "inputs": [
        {
          "internalType": "uint256",
          "name": "id",
          "type": "uint256"
        }
      ],
      "name": "nameExpires",
      "outputs": [
        {
          "internalType": "uint256",
          "name": "",
          "type": "uint256"
        }
      ],
      "stateMutability": "view",
      "type": "function"
    },
    {
      "inputs": [
        {
          "internalType": "uint256",
          "name": "id",
          "type": "uint256"
        }
      ],
      "name": "available",
      "outputs": [
        {
          "internalType": "bool",
          "name": "",
          "type": "bool"
        }
      ],
      "stateMutability": "view",
      "type": "function"
    },
    {
      "inputs": [
        {
          "internalType": "uint256",
          "name": "id",
          "type": "uint256"
        },
        {
          "internalType": "address",
          "name": "owner",
          "type": "address"
        },
        {
          "internalType": "uint256",
          "name": "duration",
          "type": "uint256"
        }
      ],
      "name": "register",
      "outputs": [
        {
          "internalType": "uint256",
          "name": "",
          "type": "uint256"
        }
      ],
      "stateMutability": "nonpayable",
      "type": "function"
    },
    {
      "inputs": [
        {
          "internalType": "uint256",
          "name": "id",
          "type": "uint256"
        },
        {
          "internalType": "uint256",
          "name": "duration",
          "type": "uint256"
        }
      ],
      "name": "renew",
      "outputs": [
        {
          "internalType": "uint256",
          "name": "",
          "type": "uint256"
        }
      ],
      "stateMutability": "nonpayable",
      "type": "function"
    }
  ],
  "bytecode": "0x60806040523480156200001157600080fd5b5060405162002062380380620020628339810160408190526200003491620001fd565b6040518060400160405280601281526020017f416476616e636564426c6f636b636861696e00000000000000000000000000008152506040518060400160405280600481526020017f4142414700000000000000000000000000000000000000000000000000000000815250620000cc620000bd62000103640100000000026401000000009004565b64010000000062000107810204565b8151620000e190600190602085019062000157565b508051620000f790600290602084019062000157565b5050506008556200026d565b3390565b60008054600160a060020a03838116600160a060020a0319831681178455604051919092169283917f8be0079c531659141344cd1fd0a4f28419497f9722a3daafe3b4186f6b6457e09190a35050565b828054620001659062000217565b90600052602060002090601f016020900481019282620001895760008555620001d4565b82601f10620001a457805160ff1916838001178555620001d4565b82800160010185558215620001d4579182015b82811115620001d4578251825591602001919060010190620001b7565b50620001e2929150620001e6565b5090565b5b80821115620001e25760008155600101620001e7565b6000602082840312156200021057600080fd5b5051919050565b6002810460018216806200022c57607f821691505b6020821081141562000267577f4e487b7100000000000000000000000000000000000000000000000000000000600052602260045260246000fd5b50919050565b611de5806200027d6000396000f3fe608060405234801561001057600080fd5b506004361061015f576000357c01000000000000000000000000000000000000000000000000000000009004806395d89b41116100d5578063c87b56dd11610099578063c87b56dd146102bb578063d6e4fa86146102ce578063e985e9c5146102ee578063f2f659601461032a578063f2fde38b1461033d578063fca247ac1461035057600080fd5b806395d89b411461026757806396e494e81461026f578063a22cb46514610282578063b88d4fde14610295578063c475abff146102a857600080fd5b806342842e0e1161012757806342842e0e146101f45780636352211e1461020757806370a082311461021a578063715018a61461023b5780638da5cb5b1461024357806392eefe9b1461025457600080fd5b806301ffc9a71461016457806306fdde031461018c578063081812fc146101a1578063095ea7b3146101cc57806323b872dd146101e1575b600080fd5b6101776101723660046119c9565b610363565b60405190151581526020015b60405180910390f35b610194610400565b6040516101839190611afa565b6101b46101af366004611a03565b610492565b604051600160a060020a039091168152602001610183565b6101df6101da36600461199f565b610540565b005b6101df6101ef36600461184b565b610678565b6101df61020236600461184b565b6106b0565b6101b4610215366004611a03565b6106e8565b61022d6102283660046117fd565b610776565b604051908152602001610183565b6101df610813565b600054600160a060020a03166101b4565b6101df6102623660046117fd565b61084c565b6101946108d0565b61017761027d366004611a03565b6108df565b6101df610290366004611963565b610906565b6101df6102a3366004611887565b6109ce565b61022d6102b6366004611a41565b610a0d565b6101946102c9366004611a03565b610b7a565b61022d6102dc366004611a03565b60009081526009602052604090205490565b6101776102fc366004611818565b600160a060020a03918216600090815260066020908152604080832093909416825291909152205460ff1690565b6101df610338366004611a03565b610c73565b6101df61034b3660046117fd565b610cd3565b61022d61035e366004611a1c565b610d8b565b6000600160e060020a031982167f80ac58cd0000000000000000000000000000000000000000000000000000000014806103c65750600160e060020a031982167f5b5e139f00000000000000000000000000000000000000000000000000000000145b806103fa57507f01ffc9a700000000000000000000000000000000000000000000000000000000600160e060020a03198316145b92915050565b60606001805461040f90611cc8565b80601f016020809104026020016040519081016040528092919081815260200182805461043b90611cc8565b80156104885780601f1061045d57610100808354040283529160200191610488565b820191906000526020600020905b81548152906001019060200180831161046b57829003601f168201915b5050505050905090565b600081815260036020526040812054600160a060020a03166105245760405160e560020a62461bcd02815260206004820152602c60248201527f4552433732313a20617070726f76656420717565727920666f72206e6f6e657860448201527f697374656e7420746f6b656e000000000000000000000000000000000000000060648201526084015b60405180910390fd5b50600090815260056020526040902054600160a060020a031690565b600061054b826106e8565b905080600160a060020a031683600160a060020a031614156105d85760405160e560020a62461bcd02815260206004820152602160248201527f4552433732313a20617070726f76616c20746f2063757272656e74206f776e6560448201527f7200000000000000000000000000000000000000000000000000000000000000606482015260840161051b565b33600160a060020a03821614806105f457506105f481336102fc565b6106695760405160e560020a62461bcd02815260206004820152603860248201527f4552433732313a20617070726f76652063616c6c6572206973206e6f74206f7760448201527f6e6572206e6f7220617070726f76656420666f7220616c6c0000000000000000606482015260840161051b565b6106738383610ed8565b505050565b600754600160a060020a031633146106a55760405160e560020a62461bcd02815260040161051b90611b6a565b610673838383610f53565b600754600160a060020a031633146106dd5760405160e560020a62461bcd02815260040161051b90611b6a565b610673838383610f87565b600081815260036020526040812054600160a060020a0316806103fa5760405160e560020a62461bcd02815260206004820152602960248201527f4552433732313a206f776e657220717565727920666f72206e6f6e657869737460448201527f656e7420746f6b656e0000000000000000000000000000000000000000000000606482015260840161051b565b6000600160a060020a0382166107f75760405160e560020a62461bcd02815260206004820152602a60248201527f4552433732313a2062616c616e636520717565727920666f7220746865207a6560448201527f726f206164647265737300000000000000000000000000000000000000000000606482015260840161051b565b50600160a060020a031660009081526004602052604090205490565b600054600160a060020a031633146108405760405160e560020a62461bcd02815260040161051b90611bc7565b61084a6000610fa2565b565b600054600160a060020a031633146108795760405160e560020a62461bcd02815260040161051b90611bc7565b6007805473ffffffffffffffffffffffffffffffffffffffff1916600160a060020a0383169081179091556040517f027c3e080ed9215f564a9455a666f7e459b3edc0bb6e02a1bf842fde4d0ccfc190600090a250565b60606002805461040f90611cc8565b600854600082815260096020526040812054909142916108ff9190611c59565b1092915050565b600160a060020a0382163314156109625760405160e560020a62461bcd02815260206004820152601960248201527f4552433732313a20617070726f766520746f2063616c6c657200000000000000604482015260640161051b565b336000818152600660209081526040808320600160a060020a03871680855290835292819020805460ff191686151590811790915590519081529192917f17307eab39ab6107e8899845ad3d59bd9653f200f220920489ca2b5937696c31910160405180910390a35050565b600754600160a060020a031633146109fb5760405160e560020a62461bcd02815260040161051b90611b6a565b610a0784848484610fff565b50505050565b600754600090600160a060020a03163314610a3d5760405160e560020a62461bcd02815260040161051b90611b6a565b6008546000848152600960205260409020544291610a5a91611c59565b1015610af85760405160e560020a62461bcd028152602060048201526044602482018190527f56616e6974794e616d655265676973747261723a204e616d65206d7573742062908201527f6520726567697374657265642068657265206f7220696e20677261636520706560648201527f72696f6400000000000000000000000000000000000000000000000000000000608482015260a40161051b565b60008381526009602052604081208054849290610b16908490611c59565b90915550506000838152600960205260409081902054905184917f9b87a00e30f1ac65d898f070f8a3488fe60517182d0a2098e1b4b93a54aa9bd691610b5e91815260200190565b60405180910390a2505060009081526009602052604090205490565b600081815260036020526040902054606090600160a060020a0316610c0a5760405160e560020a62461bcd02815260206004820152602f60248201527f4552433732314d657461646174613a2055524920717565727920666f72206e6f60448201527f6e6578697374656e7420746f6b656e0000000000000000000000000000000000606482015260840161051b565b6000610c2160408051602081019091526000815290565b90506000815111610c415760405180602001604052806000815250610c6c565b80610c4b84611034565b604051602001610c5c929190611a8f565b6040516020818303038152906040525b9392505050565b600054600160a060020a03163314610ca05760405160e560020a62461bcd02815260040161051b90611bc7565b600881905560405181907fcc2c34a1adf0911114053f75b51b2b1f8fc9ef9e25f0a5f12f210032b5b0a1b290600090a250565b600054600160a060020a03163314610d005760405160e560020a62461bcd02815260040161051b90611bc7565b600160a060020a038116610d7f5760405160e560020a62461bcd02815260206004820152602660248201527f4f776e61626c653a206e6577206f776e657220697320746865207a65726f206160448201527f6464726573730000000000000000000000000000000000000000000000000000606482015260840161051b565b610d8881610fa2565b50565b600754600090600160a060020a03163314610dbb5760405160e560020a62461bcd02815260040161051b90611b6a565b610dc4846108df565b610e395760405160e560020a62461bcd02815260206004820152602860248201527f56616e6974794e616d655265676973747261723a204964206973206e6f74206160448201527f7661696c61626c65000000000000000000000000000000000000000000000000606482015260840161051b565b610e438242611c59565b600085815260096020908152604080832093909355600390522054600160a060020a031615610e7557610e7584611185565b610e7f838561122d565b600160a060020a038316847fb3d987963d01b2f68493b4bdb130988f157ea43070d4ad840fee0466ed9370d9610eb58542611c59565b60405190815260200160405180910390a3610ed08242611c59565b949350505050565b6000818152600560205260409020805473ffffffffffffffffffffffffffffffffffffffff1916600160a060020a0384169081179091558190610f1a826106e8565b600160a060020a03167f8c5be1e5ebec7d5bd14f71427d1e84f3dd0314c0f7b2291e5b200ac8c7c3b92560405160405180910390a45050565b610f5d3382611382565b610f7c5760405160e560020a62461bcd02815260040161051b90611bfc565b610673838383611489565b610673838383604051806020016040528060008152506109ce565b60008054600160a060020a0383811673ffffffffffffffffffffffffffffffffffffffff19831681178455604051919092169283917f8be0079c531659141344cd1fd0a4f28419497f9722a3daafe3b4186f6b6457e09190a35050565b6110093383611382565b6110285760405160e560020a62461bcd02815260040161051b90611bfc565b610a0784848484611669565b60608161107457505060408051808201909152600181527f3000000000000000000000000000000000000000000000000000000000000000602082015290565b8160005b811561109e578061108881611d06565b91506110979050600a83611c71565b9150611078565b60008167ffffffffffffffff8111156110b9576110b9611d80565b6040519080825280601f01601f1916602001820160405280156110e3576020820181803683370190505b5090505b8415610ed0576110f8600183611c85565b9150611105600a86611d21565b611110906030611c59565b7f01000000000000000000000000000000000000000000000000000000000000000281838151811061114457611144611d67565b60200101907effffffffffffffffffffffffffffffffffffffffffffffffffffffffffffff1916908160001a90535061117e600a86611c71565b94506110e7565b6000611190826106e8565b905061119d600083610ed8565b600160a060020a03811660009081526004602052604081208054600192906111c6908490611c85565b9091555050600082815260036020526040808220805473ffffffffffffffffffffffffffffffffffffffff1916905551839190600160a060020a038416907fddf252ad1be2c89b69c2b068fc378daa952ba7f163c4a11628f55a4df523b3ef908390a45050565b600160a060020a0382166112865760405160e560020a62461bcd02815260206004820181905260248201527f4552433732313a206d696e7420746f20746865207a65726f2061646472657373604482015260640161051b565b600081815260036020526040902054600160a060020a0316156112ee5760405160e560020a62461bcd02815260206004820152601c60248201527f4552433732313a20746f6b656e20616c7265616479206d696e74656400000000604482015260640161051b565b600160a060020a0382166000908152600460205260408120805460019290611317908490611c59565b9091555050600081815260036020526040808220805473ffffffffffffffffffffffffffffffffffffffff1916600160a060020a03861690811790915590518392907fddf252ad1be2c89b69c2b068fc378daa952ba7f163c4a11628f55a4df523b3ef908290a45050565b600081815260036020526040812054600160a060020a031661140f5760405160e560020a62461bcd02815260206004820152602c60248201527f4552433732313a206f70657261746f7220717565727920666f72206e6f6e657860448201527f697374656e7420746f6b656e0000000000000000000000000000000000000000606482015260840161051b565b600061141a836106e8565b905080600160a060020a031684600160a060020a03161480611455575083600160a060020a031661144a84610492565b600160a060020a0316145b80610ed05750600160a060020a0380821660009081526006602090815260408083209388168352929052205460ff16610ed0565b82600160a060020a031661149c826106e8565b600160a060020a03161461151b5760405160e560020a62461bcd02815260206004820152602960248201527f4552433732313a207472616e73666572206f6620746f6b656e2074686174206960448201527f73206e6f74206f776e0000000000000000000000000000000000000000000000606482015260840161051b565b600160a060020a0382166115995760405160e560020a62461bcd028152602060048201526024808201527f4552433732313a207472616e7366657220746f20746865207a65726f2061646460448201527f7265737300000000000000000000000000000000000000000000000000000000606482015260840161051b565b6115a4600082610ed8565b600160a060020a03831660009081526004602052604081208054600192906115cd908490611c85565b9091555050600160a060020a03821660009081526004602052604081208054600192906115fb908490611c59565b9091555050600081815260036020526040808220805473ffffffffffffffffffffffffffffffffffffffff1916600160a060020a0386811691821790925591518493918716917fddf252ad1be2c89b69c2b068fc378daa952ba7f163c4a11628f55a4df523b3ef91a4505050565b611674848484611489565b6116808484848461169f565b610a075760405160e560020a62461bcd02815260040161051b90611b0d565b6000600160a060020a0384163b156117d6576040517f150b7a02000000000000000000000000000000000000000000000000000000008152600160a060020a0385169063150b7a02906116fc903390899088908890600401611abe565b602060405180830381600087803b15801561171657600080fd5b505af1925050508015611746575060408051601f3d908101601f19168201909252611743918101906119e6565b60015b6117a3573d808015611774576040519150601f19603f3d011682016040523d82523d6000602084013e611779565b606091505b50805161179b5760405160e560020a62461bcd02815260040161051b90611b0d565b805181602001fd5b600160e060020a0319167f150b7a0200000000000000000000000000000000000000000000000000000000149050610ed0565b506001949350505050565b8035600160a060020a03811681146117f857600080fd5b919050565b60006020828403121561180f57600080fd5b610c6c826117e1565b6000806040838503121561182b57600080fd5b611834836117e1565b9150611842602084016117e1565b90509250929050565b60008060006060848603121561186057600080fd5b611869846117e1565b9250611877602085016117e1565b9150604084013590509250925092565b6000806000806080858703121561189d57600080fd5b6118a6856117e1565b93506118b4602086016117e1565b925060408501359150606085013567ffffffffffffffff808211156118d857600080fd5b818701915087601f8301126118ec57600080fd5b8135818111156118fe576118fe611d80565b604051601f8201601f19908116603f0116810190838211818310171561192657611926611d80565b816040528281528a602084870101111561193f57600080fd5b82602086016020830137600060208483010152809550505050505092959194509250565b6000806040838503121561197657600080fd5b61197f836117e1565b91506020830135801515811461199457600080fd5b809150509250929050565b600080604083850312156119b257600080fd5b6119bb836117e1565b946020939093013593505050565b6000602082840312156119db57600080fd5b8135610c6c81611d99565b6000602082840312156119f857600080fd5b8151610c6c81611d99565b600060208284031215611a1557600080fd5b5035919050565b600080600060608486031215611a3157600080fd5b83359250611877602085016117e1565b60008060408385031215611a5457600080fd5b50508035926020909101359150565b60008151808452611a7b816020860160208601611c9c565b601f01601f19169290920160200192915050565b60008351611aa1818460208801611c9c565b835190830190611ab5818360208801611c9c565b01949350505050565b6000600160a060020a03808716835280861660208401525083604083015260806060830152611af06080830184611a63565b9695505050505050565b602081526000610c6c6020830184611a63565b60208082526032908201527f4552433732313a207472616e7366657220746f206e6f6e20455243373231526560408201527f63656976657220696d706c656d656e7465720000000000000000000000000000606082015260800190565b6020808252602d908201527f56616e6974794e616d655265676973747261723a2053656e646572206973206e60408201527f6f7420636f6e74726f6c6c657200000000000000000000000000000000000000606082015260800190565b6020808252818101527f4f776e61626c653a2063616c6c6572206973206e6f7420746865206f776e6572604082015260600190565b60208082526031908201527f4552433732313a207472616e736665722063616c6c6572206973206e6f74206f60408201527f776e6572206e6f7220617070726f766564000000000000000000000000000000606082015260800190565b60008219821115611c6c57611c6c611d35565b500190565b600082611c8057611c80611d4e565b500490565b600082821015611c9757611c97611d35565b500390565b60005b83811015611cb7578181015183820152602001611c9f565b83811115610a075750506000910152565b600281046001821680611cdc57607f821691505b60208210811415611d005760e060020a634e487b7102600052602260045260246000fd5b50919050565b6000600019821415611d1a57611d1a611d35565b5060010190565b600082611d3057611d30611d4e565b500690565b60e060020a634e487b7102600052601160045260246000fd5b60e060020a634e487b7102600052601260045260246000fd5b60e060020a634e487b7102600052603260045260246000fd5b60e060020a634e487b7102600052604160045260246000fd5b600160e060020a031981168114610d8857600080fdfea264697066735822122009be3d59ca7a2e3afa3a5249a878dd76304e6b33a5f01cd2f7ff7e93c3dae41864736f6c63430008070033",
  "immutableReferences": {},
  "source": "// SPDX-License-Identifier: UNLICENSED\r\npragma solidity ^0.8.7;\r\n\r\nimport \"@openzeppelin/contracts/access/Ownable.sol\";\r\nimport \"@openzeppelin/contracts/token/ERC721/ERC721.sol\";\r\n\r\ncontract VanityNameRegistrar is Ownable, ERC721{\r\n\r\n    // Address of controller which can transfer, register and renew token (vanity names)\r\n    address private controller; \r\n\r\n    // Period in which user could rebuy name, and other users couldn't buy that name (and name is expired)\r\n    uint256 private gracePeriod;\r\n\r\n    mapping (uint256 => uint256) expiries;\r\n\r\n    event ControllerChanged(address indexed controller);\r\n    event GracePeriodChanged(uint256 indexed gracePeriod);\r\n    event NameRegistered(uint256 indexed id, address indexed owner, uint expires);\r\n    event NameRenewed(uint256 indexed id, uint expires);\r\n\r\n    modifier onlyController {\r\n        require(controller == msg.sender, \"VanityNameRegistrar: Sender is not controller\");\r\n        _;\r\n    }\r\n\r\n    /**\r\n     * @dev Initializer for VanityNameRegistrar\r\n     * @param _gracePeriod Period in which user could rebuy name, and other users couldn't buy that name (and name is expired)\r\n     */\r\n    constructor(uint256 _gracePeriod) ERC721(\"AdvancedBlockchain\", \"ABAG\")  {\r\n        gracePeriod = _gracePeriod;\r\n    }\r\n\r\n    /**\r\n     * @dev See {IERC721-transferFrom}.\r\n     */\r\n    function transferFrom(address from, address to, uint256 tokenId) public override onlyController{\r\n        super.transferFrom(from, to, tokenId);\r\n    }\r\n\r\n    /**\r\n     * @dev See {IERC721-safeTransferFrom}.\r\n     */\r\n    function safeTransferFrom(address from, address to,uint256 tokenId) public override onlyController {\r\n        super.safeTransferFrom(from, to, tokenId);\r\n    }\r\n\r\n    /**\r\n     * @dev See {IERC721-safeTransferFrom}.\r\n     */\r\n    function safeTransferFrom(address from, address to,uint256 tokenId, bytes memory _data) public override onlyController {\r\n        super.safeTransferFrom(from, to, tokenId, _data);\r\n    }\r\n\r\n    /**\r\n     * @dev Setter for controller variable\r\n     * @param _controller address of controller which can transfer, register and renew token (vanity names)\r\n     */\r\n    function setController(address _controller) external onlyOwner {\r\n        controller = _controller;\r\n        \r\n        emit ControllerChanged(_controller);\r\n    }\r\n\r\n    /**\r\n     * @dev Setter for gracePeriod variable\r\n     * @param _gracePeriod Period in which user could rebuy name, and other users couldn't buy that name (and name is expired)\r\n     */\r\n    function setGracePeriod(uint256 _gracePeriod) external onlyOwner {\r\n        gracePeriod = _gracePeriod;\r\n\r\n        emit GracePeriodChanged(_gracePeriod);\r\n    }\r\n\r\n\r\n    /**\r\n     * @dev Check expiration timestamp for specified id\r\n     * @param id Token ID\r\n     * @return The expiration timestamp of the specified id.\r\n     */\r\n    function nameExpires(uint256 id) external view returns(uint) {\r\n        return expiries[id];\r\n    }\r\n\r\n    /**\r\n     * @dev Check is specified id available for registration\r\n     * @param id Token ID\r\n     * @return Returns true iff the specified name is available for registration\r\n     */\r\n    function available(uint256 id) public view returns (bool) {\r\n        // Not available if it's registered here or in its grace period.\r\n        return expiries[id] + gracePeriod < block.timestamp;\r\n    }\r\n\r\n    /**\r\n     * @dev Function that register name which is represented as token id\r\n     * @param id Token ID\r\n     * @param owner Owner of name (token)\r\n     * @param duration Period for how long name will be register for that owner\r\n     * @return Returns until that name is register\r\n     */\r\n    function register(uint256 id, address owner, uint duration) external onlyController returns(uint) {\r\n        require(available(id), \"VanityNameRegistrar: Id is not available\");\r\n\r\n        expiries[id] = block.timestamp + duration;\r\n        if(_exists(id)) {\r\n            // Name was previously owned, and expired\r\n            _burn(id);\r\n        }\r\n        _mint(owner, id);\r\n\r\n        emit NameRegistered(id, owner, block.timestamp + duration);\r\n\r\n        return block.timestamp + duration;\r\n    }\r\n\r\n    /**\r\n     * @dev Function that renew name which is currently not expiried or it is in grace period\r\n     * @param id Token ID\r\n     * @param duration Period for how long name will be register for that user\r\n     * @return Returns until that name is register\r\n     */\r\n    function renew(uint256 id, uint duration) external onlyController returns(uint) {\r\n        require(expiries[id] + gracePeriod >= block.timestamp, \"VanityNameRegistrar: Name must be registered here or in grace period\"); // Name must be registered here or in grace period\r\n\r\n        expiries[id] += duration;\r\n        emit NameRenewed(id, expiries[id]);\r\n        return expiries[id];\r\n    }\r\n}",
  "sourcePath": "D:\\Posao-Stefan\\Stefan-razno\\Blockchain\\AdvancedBlockchain\\VanityNames\\contracts\\VanityNameRegistrar.sol",
  "compiler": {
    "name": "solc",
    "version": "0.8.7+commit.e28d00a7.Emscripten.clang"
  },
  "schemaVersion": "3.4.3",
  "updatedAt": "2021-09-20T10:34:09.601Z",
  "devdoc": {
    "kind": "dev",
    "methods": {
      "approve(address,uint256)": {
        "details": "See {IERC721-approve}."
      },
      "available(uint256)": {
        "details": "Check is specified id available for registration",
        "params": {
          "id": "Token ID"
        },
        "returns": {
          "_0": "Returns true iff the specified name is available for registration"
        }
      },
      "balanceOf(address)": {
        "details": "See {IERC721-balanceOf}."
      },
      "constructor": {
        "details": "Initializer for VanityNameRegistrar",
        "params": {
          "_gracePeriod": "Period in which user could rebuy name, and other users couldn't buy that name (and name is expired)"
        }
      },
      "getApproved(uint256)": {
        "details": "See {IERC721-getApproved}."
      },
      "isApprovedForAll(address,address)": {
        "details": "See {IERC721-isApprovedForAll}."
      },
      "name()": {
        "details": "See {IERC721Metadata-name}."
      },
      "nameExpires(uint256)": {
        "details": "Check expiration timestamp for specified id",
        "params": {
          "id": "Token ID"
        },
        "returns": {
          "_0": "The expiration timestamp of the specified id."
        }
      },
      "owner()": {
        "details": "Returns the address of the current owner."
      },
      "ownerOf(uint256)": {
        "details": "See {IERC721-ownerOf}."
      },
      "register(uint256,address,uint256)": {
        "details": "Function that register name which is represented as token id",
        "params": {
          "duration": "Period for how long name will be register for that owner",
          "id": "Token ID",
          "owner": "Owner of name (token)"
        },
        "returns": {
          "_0": "Returns until that name is register"
        }
      },
      "renew(uint256,uint256)": {
        "details": "Function that renew name which is currently not expiried or it is in grace period",
        "params": {
          "duration": "Period for how long name will be register for that user",
          "id": "Token ID"
        },
        "returns": {
          "_0": "Returns until that name is register"
        }
      },
      "renounceOwnership()": {
        "details": "Leaves the contract without owner. It will not be possible to call `onlyOwner` functions anymore. Can only be called by the current owner. NOTE: Renouncing ownership will leave the contract without an owner, thereby removing any functionality that is only available to the owner."
      },
      "safeTransferFrom(address,address,uint256)": {
        "details": "See {IERC721-safeTransferFrom}."
      },
      "safeTransferFrom(address,address,uint256,bytes)": {
        "details": "See {IERC721-safeTransferFrom}."
      },
      "setApprovalForAll(address,bool)": {
        "details": "See {IERC721-setApprovalForAll}."
      },
      "setController(address)": {
        "details": "Setter for controller variable",
        "params": {
          "_controller": "address of controller which can transfer, register and renew token (vanity names)"
        }
      },
      "setGracePeriod(uint256)": {
        "details": "Setter for gracePeriod variable",
        "params": {
          "_gracePeriod": "Period in which user could rebuy name, and other users couldn't buy that name (and name is expired)"
        }
      },
      "supportsInterface(bytes4)": {
        "details": "See {IERC165-supportsInterface}."
      },
      "symbol()": {
        "details": "See {IERC721Metadata-symbol}."
      },
      "tokenURI(uint256)": {
        "details": "See {IERC721Metadata-tokenURI}."
      },
      "transferFrom(address,address,uint256)": {
        "details": "See {IERC721-transferFrom}."
      },
      "transferOwnership(address)": {
        "details": "Transfers ownership of the contract to a new account (`newOwner`). Can only be called by the current owner."
      }
    },
    "version": 1
  },
  "userdoc": {
    "kind": "user",
    "methods": {},
    "version": 1
  }
}