{
  "contractName": "VanityNameController",
  "abi": [
    {
      "inputs": [
        {
          "internalType": "contract VanityNamePrices",
          "name": "_prices",
          "type": "address"
        },
        {
          "internalType": "contract VanityNameRegistrar",
          "name": "_registrar",
          "type": "address"
        },
        {
          "internalType": "uint256",
          "name": "_lockingAmount",
          "type": "uint256"
        },
        {
          "internalType": "uint256",
          "name": "_registerPeriod",
          "type": "uint256"
        },
        {
          "internalType": "uint256",
          "name": "_minCommitmentAge",
          "type": "uint256"
        },
        {
          "internalType": "uint256",
          "name": "_maxCommitmentAge",
          "type": "uint256"
        }
      ],
      "stateMutability": "nonpayable",
      "type": "constructor"
    },
    {
      "anonymous": false,
      "inputs": [
        {
          "indexed": false,
          "internalType": "string",
          "name": "name",
          "type": "string"
        },
        {
          "indexed": true,
          "internalType": "bytes32",
          "name": "label",
          "type": "bytes32"
        },
        {
          "indexed": true,
          "internalType": "address",
          "name": "owner",
          "type": "address"
        },
        {
          "indexed": false,
          "internalType": "uint256",
          "name": "cost",
          "type": "uint256"
        },
        {
          "indexed": false,
          "internalType": "uint256",
          "name": "expires",
          "type": "uint256"
        }
      ],
      "name": "NameRegistered",
      "type": "event"
    },
    {
      "anonymous": false,
      "inputs": [
        {
          "indexed": false,
          "internalType": "string",
          "name": "name",
          "type": "string"
        },
        {
          "indexed": true,
          "internalType": "bytes32",
          "name": "label",
          "type": "bytes32"
        },
        {
          "indexed": false,
          "internalType": "uint256",
          "name": "cost",
          "type": "uint256"
        },
        {
          "indexed": false,
          "internalType": "uint256",
          "name": "expires",
          "type": "uint256"
        }
      ],
      "name": "NameRenewed",
      "type": "event"
    },
    {
      "anonymous": false,
      "inputs": [
        {
          "indexed": true,
          "internalType": "address",
          "name": "prices",
          "type": "address"
        }
      ],
      "name": "NewPrices",
      "type": "event"
    },
    {
      "anonymous": false,
      "inputs": [
        {
          "indexed": true,
          "internalType": "address",
          "name": "previousOwner",
          "type": "address"
        },
        {
          "indexed": true,
          "internalType": "address",
          "name": "newOwner",
          "type": "address"
        }
      ],
      "name": "OwnershipTransferred",
      "type": "event"
    },
    {
      "inputs": [
        {
          "internalType": "bytes32",
          "name": "",
          "type": "bytes32"
        }
      ],
      "name": "commitments",
      "outputs": [
        {
          "internalType": "uint256",
          "name": "",
          "type": "uint256"
        }
      ],
      "stateMutability": "view",
      "type": "function"
    },
    {
      "inputs": [],
      "name": "lockedAmountSum",
      "outputs": [
        {
          "internalType": "uint256",
          "name": "",
          "type": "uint256"
        }
      ],
      "stateMutability": "view",
      "type": "function"
    },
    {
      "inputs": [
        {
          "internalType": "uint256",
          "name": "",
          "type": "uint256"
        }
      ],
      "name": "lockingAmounts",
      "outputs": [
        {
          "internalType": "uint256",
          "name": "",
          "type": "uint256"
        }
      ],
      "stateMutability": "view",
      "type": "function"
    },
    {
      "inputs": [],
      "name": "maxCommitmentAge",
      "outputs": [
        {
          "internalType": "uint256",
          "name": "",
          "type": "uint256"
        }
      ],
      "stateMutability": "view",
      "type": "function"
    },
    {
      "inputs": [],
      "name": "minCommitmentAge",
      "outputs": [
        {
          "internalType": "uint256",
          "name": "",
          "type": "uint256"
        }
      ],
      "stateMutability": "view",
      "type": "function"
    },
    {
      "inputs": [],
      "name": "owner",
      "outputs": [
        {
          "internalType": "address",
          "name": "",
          "type": "address"
        }
      ],
      "stateMutability": "view",
      "type": "function"
    },
    {
      "inputs": [],
      "name": "renounceOwnership",
      "outputs": [],
      "stateMutability": "nonpayable",
      "type": "function"
    },
    {
      "inputs": [
        {
          "internalType": "address",
          "name": "newOwner",
          "type": "address"
        }
      ],
      "name": "transferOwnership",
      "outputs": [],
      "stateMutability": "nonpayable",
      "type": "function"
    },
    {
      "inputs": [
        {
          "internalType": "address",
          "name": "",
          "type": "address"
        }
      ],
      "name": "unlockedAmounts",
      "outputs": [
        {
          "internalType": "uint256",
          "name": "",
          "type": "uint256"
        }
      ],
      "stateMutability": "view",
      "type": "function"
    },
    {
      "inputs": [
        {
          "internalType": "uint256",
          "name": "_lockingAmount",
          "type": "uint256"
        },
        {
          "internalType": "uint256",
          "name": "_registerPeriod",
          "type": "uint256"
        }
      ],
      "name": "setLockingParameters",
      "outputs": [],
      "stateMutability": "nonpayable",
      "type": "function"
    },
    {
      "inputs": [
        {
          "internalType": "uint256",
          "name": "_minCommitmentAge",
          "type": "uint256"
        },
        {
          "internalType": "uint256",
          "name": "_maxCommitmentAge",
          "type": "uint256"
        }
      ],
      "name": "setCommitmentAges",
      "outputs": [],
      "stateMutability": "nonpayable",
      "type": "function"
    },
    {
      "inputs": [
        {
          "internalType": "contract VanityNamePrices",
          "name": "_prices",
          "type": "address"
        }
      ],
      "name": "setPrices",
      "outputs": [],
      "stateMutability": "nonpayable",
      "type": "function"
    },
    {
      "inputs": [
        {
          "internalType": "string",
          "name": "name",
          "type": "string"
        }
      ],
      "name": "rentPrice",
      "outputs": [
        {
          "internalType": "uint256",
          "name": "",
          "type": "uint256"
        }
      ],
      "stateMutability": "view",
      "type": "function"
    },
    {
      "inputs": [
        {
          "internalType": "string",
          "name": "name",
          "type": "string"
        }
      ],
      "name": "valid",
      "outputs": [
        {
          "internalType": "bool",
          "name": "",
          "type": "bool"
        }
      ],
      "stateMutability": "pure",
      "type": "function"
    },
    {
      "inputs": [
        {
          "internalType": "string",
          "name": "name",
          "type": "string"
        }
      ],
      "name": "available",
      "outputs": [
        {
          "internalType": "bool",
          "name": "",
          "type": "bool"
        }
      ],
      "stateMutability": "view",
      "type": "function"
    },
    {
      "inputs": [
        {
          "internalType": "string",
          "name": "name",
          "type": "string"
        },
        {
          "internalType": "address",
          "name": "owner",
          "type": "address"
        },
        {
          "internalType": "bytes32",
          "name": "secret",
          "type": "bytes32"
        }
      ],
      "name": "makeCommitment",
      "outputs": [
        {
          "internalType": "bytes32",
          "name": "",
          "type": "bytes32"
        }
      ],
      "stateMutability": "pure",
      "type": "function"
    },
    {
      "inputs": [
        {
          "internalType": "bytes32",
          "name": "commitment",
          "type": "bytes32"
        }
      ],
      "name": "commit",
      "outputs": [],
      "stateMutability": "nonpayable",
      "type": "function"
    },
    {
      "inputs": [],
      "name": "withdraw",
      "outputs": [],
      "stateMutability": "nonpayable",
      "type": "function"
    },
    {
      "inputs": [
        {
          "internalType": "string",
          "name": "name",
          "type": "string"
        }
      ],
      "name": "withdrawLockedAmount",
      "outputs": [],
      "stateMutability": "nonpayable",
      "type": "function"
    },
    {
      "inputs": [],
      "name": "withdrawLockedAmount",
      "outputs": [],
      "stateMutability": "nonpayable",
      "type": "function"
    },
    {
      "inputs": [
        {
          "internalType": "string",
          "name": "name",
          "type": "string"
        },
        {
          "internalType": "address",
          "name": "owner",
          "type": "address"
        },
        {
          "internalType": "bytes32",
          "name": "secret",
          "type": "bytes32"
        }
      ],
      "name": "register",
      "outputs": [],
      "stateMutability": "payable",
      "type": "function"
    },
    {
      "inputs": [
        {
          "internalType": "string",
          "name": "name",
          "type": "string"
        }
      ],
      "name": "renew",
      "outputs": [],
      "stateMutability": "payable",
      "type": "function"
    }
  ],
  "bytecode": "0x60806040523480156200001157600080fd5b5060405162001903380380620019038339810160408190526200003491620000f6565b6200005a6200004b640100000000620000a2810204565b640100000000620000a6810204565b60028054600160a060020a03978816600160a060020a031991821617909155600380549690971695169490941790945560049190915560055560079190915560085562000172565b3390565b60008054600160a060020a03838116600160a060020a0319831681178455604051919092169283917f8be0079c531659141344cd1fd0a4f28419497f9722a3daafe3b4186f6b6457e09190a35050565b60008060008060008060c087890312156200011057600080fd5b86516200011d8162000159565b6020880151909650620001308162000159565b6040880151606089015160808a015160a0909a0151989b929a5090989097909650945092505050565b600160a060020a03811681146200016f57600080fd5b50565b61178180620001826000396000f3fe608060405260043610610152576000357c0100000000000000000000000000000000000000000000000000000000900480639791c097116100c8578063d6c0bd711161008c578063d6c0bd711461036a578063d726f3191461038a578063f14fcbc81461039f578063f2fde38b146103bf578063f34b95b3146103df578063f49826be146103f257600080fd5b80639791c097146102d1578063a03eab3d14610301578063a4a9a61214610321578063aeb8ce9b14610334578063ce1e09c01461035457600080fd5b80637e3244791161011a5780637e32447914610203578063839df945146102235780638919ab10146102505780638d839ffe1461027d5780638da5cb5b146102935780639720c223146102bb57600080fd5b80633ccfd60b1461015757806343861c5a1461016e578063443ea0fd1461018e5780635b74185c146101ce578063715018a6146101ee575b600080fd5b34801561016357600080fd5b5061016c610412565b005b34801561017a57600080fd5b5061016c6101893660046112e2565b610487565b34801561019a57600080fd5b506101bb6101a93660046112e2565b600a6020526000908152604090205481565b6040519081526020015b60405180910390f35b3480156101da57600080fd5b5061016c6101e9366004611479565b61050b565b3480156101fa57600080fd5b5061016c610543565b34801561020f57600080fd5b5061016c61021e366004611479565b61057c565b34801561022f57600080fd5b506101bb61023e36600461133e565b60016020526000908152604090205481565b34801561025c57600080fd5b506101bb61026b36600461133e565b60096020526000908152604090205481565b34801561028957600080fd5b506101bb60075481565b34801561029f57600080fd5b50600054604051600160a060020a0390911681526020016101c5565b3480156102c757600080fd5b506101bb60065481565b3480156102dd57600080fd5b506102f16102ec3660046113c9565b6105b4565b60405190151581526020016101c5565b34801561030d57600080fd5b506101bb61031c3660046113c9565b6105c9565b61016c61032f366004611357565b610669565b34801561034057600080fd5b506102f161034f3660046113c9565b610813565b34801561036057600080fd5b506101bb60085481565b34801561037657600080fd5b5061016c6103853660046113c9565b6108c9565b34801561039657600080fd5b5061016c610a30565b3480156103ab57600080fd5b5061016c6103ba36600461133e565b610a75565b3480156103cb57600080fd5b5061016c6103da3660046112e2565b610ac5565b61016c6103ed366004611406565b610b7a565b3480156103fe57600080fd5b506101bb61040d366004611406565b610d46565b600054600160a060020a031633146104485760405160e560020a62461bcd02815260040161043f906115cd565b60405180910390fd5b60065433906108fc9061045c903031611677565b6040518115909202916000818181858888f19350505050158015610484573d6000803e3d6000fd5b50565b600054600160a060020a031633146104b45760405160e560020a62461bcd02815260040161043f906115cd565b6002805473ffffffffffffffffffffffffffffffffffffffff1916600160a060020a0383169081179091556040517f79a2a672fa56595d47e69f9c2fee48d917fb5c5a5c902733ea687c1db3fa3f3790600090a250565b600054600160a060020a031633146105385760405160e560020a62461bcd02815260040161043f906115cd565b600491909155600555565b600054600160a060020a031633146105705760405160e560020a62461bcd02815260040161043f906115cd565b61057a6000610d99565b565b600054600160a060020a031633146105a95760405160e560020a62461bcd02815260040161043f906115cd565b600791909155600855565b600060036105c183610df6565b101592915050565b6002546040517ffe2c6198000000000000000000000000000000000000000000000000000000008152600091600160a060020a03169063fe2c619890610613908590600401611538565b60206040518083038186803b15801561062b57600080fd5b505afa15801561063f573d6000803e3d6000fd5b505050506040513d601f19601f820116820180604052508101906106639190611460565b92915050565b60006106aa83838080601f0160208091040260200160405190810160405280939291908181526020018383808284376000920191909152506105c992505050565b9050803410156106cf5760405160e560020a62461bcd02815260040161043f90611570565b600083836040516106e19291906114e8565b6040519081900381206003546005547fc475abff000000000000000000000000000000000000000000000000000000008452600484018390526024840152909250600091600160a060020a039091169063c475abff90604401602060405180830381600087803b15801561075457600080fd5b505af1158015610768573d6000803e3d6000fd5b505050506040513d601f19601f8201168201806040525081019061078c9190611460565b9050823411156107ce57336108fc6107a48534611677565b6040518115909202916000818181858888f193505050501580156107cc573d6000803e3d6000fd5b505b817f3da24c024582931cfaf8267d8ed24d13a82a8068d5bd337d30ec45cea4e506ae8686868560405161080494939291906114f8565b60405180910390a25050505050565b80516020820120600090610826836105b4565b80156108c257506003546040517f96e494e800000000000000000000000000000000000000000000000000000000815260048101839052600160a060020a03909116906396e494e89060240160206040518083038186803b15801561088a57600080fd5b505afa15801561089e573d6000803e3d6000fd5b505050506040513d601f19601f820116820180604052508101906108c2919061131c565b9392505050565b805160208201206003546040517f6352211e0000000000000000000000000000000000000000000000000000000081526004810183905282913391600160a060020a0390911690636352211e9060240160206040518083038186803b15801561093157600080fd5b505afa158015610945573d6000803e3d6000fd5b505050506040513d601f19601f8201168201806040525081019061096991906112ff565b600160a060020a0316148015610a1557506003546040517f96e494e800000000000000000000000000000000000000000000000000000000815260048101839052600160a060020a03909116906396e494e89060240160206040518083038186803b1580156109d757600080fd5b505afa1580156109eb573d6000803e3d6000fd5b505050506040513d601f19601f82011682018060405250810190610a0f919061131c565b15156001145b15610a2357610a2381610fab565b610a2b610a30565b505050565b336000818152600a6020526040808220805490839055905190929183156108fc02918491818181858888f19350505050158015610a71573d6000803e3d6000fd5b5050565b6008546000828152600160205260409020544291610a929161165f565b10610ab25760405160e560020a62461bcd02815260040161043f90611602565b6000908152600160205260409020429055565b600054600160a060020a03163314610af25760405160e560020a62461bcd02815260040161043f906115cd565b600160a060020a038116610b715760405160e560020a62461bcd02815260206004820152602660248201527f4f776e61626c653a206e6577206f776e657220697320746865207a65726f206160448201527f6464726573730000000000000000000000000000000000000000000000000000606482015260840161043f565b61048481610d99565b6000610b87848484610d46565b90506000610b9585836110b7565b85516020808801919091206000818152600990925260409091205491925090819015610bc457610bc481610fab565b6003546005546040517ffca247ac00000000000000000000000000000000000000000000000000000000815260048101849052600160a060020a0389811660248301526044820192909252600092919091169063fca247ac90606401602060405180830381600087803b158015610c3a57600080fd5b505af1158015610c4e573d6000803e3d6000fd5b505050506040513d601f19601f82011682018060405250810190610c729190611460565b6004546000848152600960205260409020819055600654919250610c959161165f565b60068190555086600160a060020a0316837fca6abbe9d7f11422cb6ca7629fbf6fe9efb1c621f71ce8f02b9f2a230097404f8a8785604051610cd99392919061154b565b60405180910390a3600454610cee908561165f565b341115610d3c5760045433906108fc90610d088734611677565b610d129190611677565b6040518115909202916000818181858888f19350505050158015610d3a573d6000803e3d6000fd5b505b5050505050505050565b82516020938401206040805180860192909252600160a060020a03939093166c01000000000000000000000000028184015260548082019290925282518082039092018252607401909152805191012090565b60008054600160a060020a0383811673ffffffffffffffffffffffffffffffffffffffff19831681178455604051919092169283917f8be0079c531659141344cd1fd0a4f28419497f9722a3daafe3b4186f6b6457e09190a35050565b8051600090819081905b80821015610fa2576000858381518110610e1c57610e1c6116d8565b01602001517f0100000000000000000000000000000000000000000000000000000000000000908190040290507f8000000000000000000000000000000000000000000000000000000000000000600160f860020a031982161015610e8d57610e8660018461165f565b9250610f8f565b7fe000000000000000000000000000000000000000000000000000000000000000600160f860020a031982161015610eca57610e8660028461165f565b7ff000000000000000000000000000000000000000000000000000000000000000600160f860020a031982161015610f0757610e8660038461165f565b7ff800000000000000000000000000000000000000000000000000000000000000600160f860020a031982161015610f4457610e8660048461165f565b7ffc00000000000000000000000000000000000000000000000000000000000000600160f860020a031982161015610f8157610e8660058461165f565b610f8c60068461165f565b92505b5082610f9a8161168e565b935050610e00565b50909392505050565b6003546040517f6352211e00000000000000000000000000000000000000000000000000000000815260048101839052600091600160a060020a031690636352211e9060240160206040518083038186803b15801561100957600080fd5b505afa15801561101d573d6000803e3d6000fd5b505050506040513d601f19601f8201168201806040525081019061104191906112ff565b600083815260096020908152604080832054600160a060020a0385168452600a909252909120549192509061107790829061165f565b600160a060020a0383166000908152600a602090815260408083209390935585825260099052908120556006546110af908290611677565b600655505050565b600754600082815260016020526040812054909142916110d7919061165f565b111561114e5760405160e560020a62461bcd02815260206004820152603560248201527f56616e6974794e616d65436f6e74726f6c6c65723a204d696e20636f6d6d697460448201527f6d656e74206167652069736e2774207061737365640000000000000000000000606482015260840161043f565b600854600083815260016020526040902054429161116b9161165f565b1161118b5760405160e560020a62461bcd02815260040161043f90611602565b61119483610813565b6112095760405160e560020a62461bcd02815260206004820152602b60248201527f56616e6974794e616d65436f6e74726f6c6c65723a204e616d65206973206e6f60448201527f7420617661696c61626c65000000000000000000000000000000000000000000606482015260840161043f565b6000828152600160205260408120819055611223846105c9565b905060045481611233919061165f565b3410156108c25760405160e560020a62461bcd02815260040161043f90611570565b600082601f83011261126657600080fd5b813567ffffffffffffffff8082111561128157611281611707565b604051601f8301601f19908116603f011681019082821181831017156112a9576112a9611707565b816040528381528660208588010111156112c257600080fd5b836020870160208301376000602085830101528094505050505092915050565b6000602082840312156112f457600080fd5b81356108c281611736565b60006020828403121561131157600080fd5b81516108c281611736565b60006020828403121561132e57600080fd5b815180151581146108c257600080fd5b60006020828403121561135057600080fd5b5035919050565b6000806020838503121561136a57600080fd5b823567ffffffffffffffff8082111561138257600080fd5b818501915085601f83011261139657600080fd5b8135818111156113a557600080fd5b8660208285010111156113b757600080fd5b60209290920196919550909350505050565b6000602082840312156113db57600080fd5b813567ffffffffffffffff8111156113f257600080fd5b6113fe84828501611255565b949350505050565b60008060006060848603121561141b57600080fd5b833567ffffffffffffffff81111561143257600080fd5b61143e86828701611255565b935050602084013561144f81611736565b929592945050506040919091013590565b60006020828403121561147257600080fd5b5051919050565b6000806040838503121561148c57600080fd5b50508035926020909101359150565b6000815180845260005b818110156114c1576020818501810151868301820152016114a5565b818111156114d3576000602083870101525b50601f01601f19169290920160200192915050565b8183823760009101908152919050565b606081528360608201528385608083013760006080858301015260006080601f19601f870116830101905083602083015282604083015295945050505050565b6020815260006108c2602083018461149b565b60608152600061155e606083018661149b565b60208301949094525060400152919050565b60208082526034908201527f56616e6974794e616d65436f6e74726f6c6c65723a205573657220646f65736e60408201527f27742073656e6420656e6f7567682076616c7565000000000000000000000000606082015260800190565b6020808252818101527f4f776e61626c653a2063616c6c6572206973206e6f7420746865206f776e6572604082015260600190565b60208082526033908201527f56616e6974794e616d65436f6e74726f6c6c65723a204d617820636f6d6d697460408201527f6d656e7420616765206861642070617373656400000000000000000000000000606082015260800190565b60008219821115611672576116726116a9565b500190565b600082821015611689576116896116a9565b500390565b60006000198214156116a2576116a26116a9565b5060010190565b7f4e487b7100000000000000000000000000000000000000000000000000000000600052601160045260246000fd5b7f4e487b7100000000000000000000000000000000000000000000000000000000600052603260045260246000fd5b7f4e487b7100000000000000000000000000000000000000000000000000000000600052604160045260246000fd5b600160a060020a038116811461048457600080fdfea2646970667358221220f21b68658424c9b9b48fc2d859b42526a5b6105facaf43ed56ead4c7a077705864736f6c63430008070033",
  "immutableReferences": {},
  "source": "// SPDX-License-Identifier: UNLICENSED\r\npragma solidity ^0.8.7;\r\n\r\nimport \"@openzeppelin/contracts/access/Ownable.sol\";\r\nimport \"./libraries/StringUtils.sol\";\r\nimport \"./VanityNameRegistrar.sol\";\r\nimport \"./VanityNamePrices.sol\";\r\n\r\ncontract VanityNameController is Ownable {\r\n    using StringUtils for *;\r\n\r\n    mapping(bytes32=>uint256) public commitments;\r\n\r\n    VanityNamePrices prices;\r\n    VanityNameRegistrar registrar;\r\n\r\n    // Amount that should be locked for every registration\r\n    uint256 private lockingAmount;\r\n    // Registration period\r\n    uint256 private registerPeriod;\r\n    // Sum of locked amount\r\n    uint256 public lockedAmountSum;\r\n\r\n    uint256 public minCommitmentAge;\r\n    uint256 public maxCommitmentAge;\r\n\r\n    // For every tokenId how much amount is locked (if controller has changes about lock amount)\r\n    mapping(uint256=>uint256) public lockingAmounts;\r\n    // Unlocked amounts per address\r\n    mapping(address=>uint256) public unlockedAmounts;\r\n\r\n    event NameRegistered(string name, bytes32 indexed label, address indexed owner, uint cost, uint expires);\r\n    event NameRenewed(string name, bytes32 indexed label, uint cost, uint expires);\r\n    event NewPrices(address indexed prices);\r\n\r\n    constructor(VanityNamePrices _prices, VanityNameRegistrar _registrar, \r\n        uint256 _lockingAmount, uint256 _registerPeriod,\r\n        uint256 _minCommitmentAge, uint256 _maxCommitmentAge\r\n    ) {\r\n        prices = _prices;\r\n        registrar = _registrar;\r\n\r\n        lockingAmount = _lockingAmount;\r\n        registerPeriod = _registerPeriod;\r\n\r\n        minCommitmentAge = _minCommitmentAge;\r\n        maxCommitmentAge = _maxCommitmentAge;\r\n    }\r\n\r\n    /**\r\n     * @dev Setter for locking variables\r\n     * @param _lockingAmount Amount that will be locked after register name \r\n     * @param _registerPeriod Period for how long will be name register\r\n     */\r\n    function setLockingParameters(uint _lockingAmount, uint _registerPeriod) public onlyOwner {\r\n        lockingAmount = _lockingAmount;\r\n        registerPeriod = _registerPeriod;\r\n    }\r\n\r\n    /**\r\n     * @dev Setter for commitment ages\r\n     * @param _minCommitmentAge Min commitment period\r\n     * @param _maxCommitmentAge Max commitment period \r\n     */\r\n    function setCommitmentAges(uint _minCommitmentAge, uint _maxCommitmentAge) public onlyOwner {\r\n        minCommitmentAge = _minCommitmentAge;\r\n        maxCommitmentAge = _maxCommitmentAge;\r\n    }\r\n\r\n    /**\r\n     * @dev Setter for prices contract\r\n     * @param _prices Prices contract\r\n     */\r\n    function setPrices(VanityNamePrices _prices) public onlyOwner {\r\n        prices = _prices;\r\n        emit NewPrices(address(prices));\r\n    }\r\n\r\n    /**\r\n     * @dev Get price for specified name\r\n     * @param name Name for which it should be get price\r\n     */\r\n    function rentPrice(string memory name) view public returns(uint) {\r\n        return prices.price(name);\r\n    }\r\n\r\n     /**\r\n     * @dev Get is name valid\r\n     * @param name Name that should be check is valid\r\n     */\r\n    function valid(string memory name) public pure returns(bool) {\r\n        return name.strlen() >= 3;\r\n    }\r\n\r\n    /**\r\n     * @dev Check is specified name available\r\n     * @param name Name that should be check is available\r\n     */\r\n    function available(string memory name) public view returns(bool) {\r\n        bytes32 label = keccak256(bytes(name));\r\n        return valid(name) && registrar.available(uint256(label));\r\n    }\r\n\r\n    /**\r\n     * @dev Make commitment how to prevent front-run\r\n     * @param name Name that should be check is available\r\n     * @param owner Owner for chosen name\r\n     * @param secret Secret value \r\n     */\r\n    function makeCommitment(string memory name, address owner, bytes32 secret) pure public returns(bytes32) {\r\n        bytes32 label = keccak256(bytes(name));\r\n        return keccak256(abi.encodePacked(label, owner, secret));\r\n    }\r\n\r\n    /**\r\n     * @dev Commit chosen name, how no one could picked in maxCommitmentAge time\r\n     * @param commitment Name that should be check is available\r\n     */\r\n    function commit(bytes32 commitment) public {\r\n        require(commitments[commitment] + maxCommitmentAge < block.timestamp, \"VanityNameController: Max commitment age had passed\");\r\n        commitments[commitment] = block.timestamp;\r\n    }\r\n\r\n    /**\r\n     * @dev Withdraw amounts that are payed for names\r\n     */\r\n    function withdraw() public onlyOwner {\r\n        payable(msg.sender).transfer(address(this).balance - lockedAmountSum);        \r\n    }\r\n\r\n    /**\r\n     * @dev Withdraw locked amount from expired name\r\n     * @param name Name for which should be withdraw lockedAmount + unlocked amounts from others tokens which are unlocked\r\n     */\r\n    function withdrawLockedAmount(string memory name) public {\r\n        bytes32 label = keccak256(bytes(name));\r\n        uint256 tokenId = uint256(label);\r\n\r\n        // Unlock amount for current tokenId (if it was from msg.sender and currently is available)\r\n        if (registrar.ownerOf(tokenId) == msg.sender && registrar.available(tokenId) == true) {\r\n            _unlockedAmount(tokenId);\r\n        }\r\n\r\n        withdrawLockedAmount();    \r\n    }\r\n\r\n    /**\r\n     * @dev Withdraw locked amount that other users unlocked\r\n     */\r\n    function withdrawLockedAmount() public {\r\n        uint256 amountForUnlock = unlockedAmounts[msg.sender];\r\n        unlockedAmounts[msg.sender] = 0;\r\n        payable(msg.sender).transfer(amountForUnlock);      \r\n    }\r\n\r\n    /**\r\n     * @dev Register specified name on registerPeriod\r\n     * @param name Name that should be register\r\n     * @param owner Owner that register name\r\n     * @param secret Secret value \r\n     */\r\n    function register(string memory name, address owner, bytes32 secret) public payable {\r\n        bytes32 commitment = makeCommitment(name, owner, secret);\r\n        uint cost = _consumeCommitment(name, commitment);\r\n\r\n        bytes32 label = keccak256(bytes(name));\r\n        uint256 tokenId = uint256(label);\r\n\r\n        // Return locking amount if user for this token still hasn't unlock amount\r\n        if (lockingAmounts[tokenId] > 0) {\r\n            _unlockedAmount(tokenId);\r\n        }\r\n\r\n        uint expires = registrar.register(tokenId, owner, registerPeriod);\r\n        \r\n        lockingAmounts[tokenId] = lockingAmount;\r\n        lockedAmountSum = lockedAmountSum + lockingAmount;\r\n\r\n        emit NameRegistered(name, label, owner, cost, expires);\r\n\r\n        // Refund any extra payment\r\n        if(msg.value > cost + lockingAmount) {\r\n            payable(msg.sender).transfer(msg.value - cost - lockingAmount);\r\n        }\r\n    }\r\n\r\n    /**\r\n     * @dev Renew specified name on registerPeriod\r\n     * @param name Name that should be renew\r\n     */\r\n    function renew(string calldata name) external payable {\r\n        uint cost = rentPrice(name);\r\n        require(msg.value >= cost, \"VanityNameController: User doesn't send enough value\");\r\n\r\n        bytes32 label = keccak256(bytes(name));\r\n        uint expires = registrar.renew(uint256(label), registerPeriod);\r\n\r\n        if(msg.value > cost) {\r\n            payable(msg.sender).transfer(msg.value - cost);\r\n        }\r\n\r\n        emit NameRenewed(name, label, cost, expires);\r\n    }\r\n\r\n    function _consumeCommitment(string memory name, bytes32 commitment) internal returns (uint256) {\r\n        // Require a valid commitment\r\n        require(commitments[commitment] + minCommitmentAge <= block.timestamp, \"VanityNameController: Min commitment age isn't passed\");\r\n\r\n        // If the commitment is too old, or the name is registered, stop\r\n        require(commitments[commitment] + maxCommitmentAge > block.timestamp, \"VanityNameController: Max commitment age had passed\");\r\n        require(available(name), \"VanityNameController: Name is not available\");\r\n\r\n        delete(commitments[commitment]);\r\n\r\n        uint cost = rentPrice(name);\r\n        require(msg.value >= cost + lockingAmount, \"VanityNameController: User doesn't send enough value\");\r\n\r\n        return cost;\r\n    }\r\n\r\n    function _unlockedAmount(uint256 tokenId) private {\r\n        address previousOwner = registrar.ownerOf(tokenId);\r\n        uint256 amountForUnlock = lockingAmounts[tokenId];\r\n        unlockedAmounts[previousOwner] = unlockedAmounts[previousOwner] + amountForUnlock;\r\n        lockingAmounts[tokenId] = 0;\r\n        lockedAmountSum = lockedAmountSum - amountForUnlock;\r\n    }\r\n}",
  "sourcePath": "D:\\Posao-Stefan\\Stefan-razno\\Blockchain\\AdvancedBlockchain\\VanityNames\\contracts\\VanityNameController.sol",
  "compiler": {
    "name": "solc",
    "version": "0.8.7+commit.e28d00a7.Emscripten.clang"
  },
  "schemaVersion": "3.4.3",
  "updatedAt": "2021-09-20T10:34:09.562Z",
  "devdoc": {
    "kind": "dev",
    "methods": {
      "available(string)": {
        "details": "Check is specified name available",
        "params": {
          "name": "Name that should be check is available"
        }
      },
      "commit(bytes32)": {
        "details": "Commit chosen name, how no one could picked in maxCommitmentAge time",
        "params": {
          "commitment": "Name that should be check is available"
        }
      },
      "makeCommitment(string,address,bytes32)": {
        "details": "Make commitment how to prevent front-run",
        "params": {
          "name": "Name that should be check is available",
          "owner": "Owner for chosen name",
          "secret": "Secret value "
        }
      },
      "owner()": {
        "details": "Returns the address of the current owner."
      },
      "register(string,address,bytes32)": {
        "details": "Register specified name on registerPeriod",
        "params": {
          "name": "Name that should be register",
          "owner": "Owner that register name",
          "secret": "Secret value "
        }
      },
      "renew(string)": {
        "details": "Renew specified name on registerPeriod",
        "params": {
          "name": "Name that should be renew"
        }
      },
      "renounceOwnership()": {
        "details": "Leaves the contract without owner. It will not be possible to call `onlyOwner` functions anymore. Can only be called by the current owner. NOTE: Renouncing ownership will leave the contract without an owner, thereby removing any functionality that is only available to the owner."
      },
      "rentPrice(string)": {
        "details": "Get price for specified name",
        "params": {
          "name": "Name for which it should be get price"
        }
      },
      "setCommitmentAges(uint256,uint256)": {
        "details": "Setter for commitment ages",
        "params": {
          "_maxCommitmentAge": "Max commitment period ",
          "_minCommitmentAge": "Min commitment period"
        }
      },
      "setLockingParameters(uint256,uint256)": {
        "details": "Setter for locking variables",
        "params": {
          "_lockingAmount": "Amount that will be locked after register name ",
          "_registerPeriod": "Period for how long will be name register"
        }
      },
      "setPrices(address)": {
        "details": "Setter for prices contract",
        "params": {
          "_prices": "Prices contract"
        }
      },
      "transferOwnership(address)": {
        "details": "Transfers ownership of the contract to a new account (`newOwner`). Can only be called by the current owner."
      },
      "valid(string)": {
        "details": "Get is name valid",
        "params": {
          "name": "Name that should be check is valid"
        }
      },
      "withdraw()": {
        "details": "Withdraw amounts that are payed for names"
      },
      "withdrawLockedAmount()": {
        "details": "Withdraw locked amount that other users unlocked"
      },
      "withdrawLockedAmount(string)": {
        "details": "Withdraw locked amount from expired name",
        "params": {
          "name": "Name for which should be withdraw lockedAmount + unlocked amounts from others tokens which are unlocked"
        }
      }
    },
    "version": 1
  },
  "userdoc": {
    "kind": "user",
    "methods": {},
    "version": 1
  }
}