{
  "contractName": "VanityNamePrices",
  "abi": [
    {
      "inputs": [
        {
          "internalType": "uint256[]",
          "name": "_rentPrices",
          "type": "uint256[]"
        }
      ],
      "stateMutability": "nonpayable",
      "type": "constructor"
    },
    {
      "anonymous": false,
      "inputs": [
        {
          "indexed": true,
          "internalType": "address",
          "name": "previousOwner",
          "type": "address"
        },
        {
          "indexed": true,
          "internalType": "address",
          "name": "newOwner",
          "type": "address"
        }
      ],
      "name": "OwnershipTransferred",
      "type": "event"
    },
    {
      "anonymous": false,
      "inputs": [
        {
          "indexed": false,
          "internalType": "uint256[]",
          "name": "prices",
          "type": "uint256[]"
        }
      ],
      "name": "RentPriceChanged",
      "type": "event"
    },
    {
      "inputs": [],
      "name": "owner",
      "outputs": [
        {
          "internalType": "address",
          "name": "",
          "type": "address"
        }
      ],
      "stateMutability": "view",
      "type": "function",
      "constant": true
    },
    {
      "inputs": [],
      "name": "renounceOwnership",
      "outputs": [],
      "stateMutability": "nonpayable",
      "type": "function"
    },
    {
      "inputs": [
        {
          "internalType": "uint256",
          "name": "",
          "type": "uint256"
        }
      ],
      "name": "rentPrices",
      "outputs": [
        {
          "internalType": "uint256",
          "name": "",
          "type": "uint256"
        }
      ],
      "stateMutability": "view",
      "type": "function",
      "constant": true
    },
    {
      "inputs": [
        {
          "internalType": "address",
          "name": "newOwner",
          "type": "address"
        }
      ],
      "name": "transferOwnership",
      "outputs": [],
      "stateMutability": "nonpayable",
      "type": "function"
    },
    {
      "inputs": [
        {
          "internalType": "string",
          "name": "name",
          "type": "string"
        }
      ],
      "name": "price",
      "outputs": [
        {
          "internalType": "uint256",
          "name": "",
          "type": "uint256"
        }
      ],
      "stateMutability": "view",
      "type": "function",
      "constant": true
    },
    {
      "inputs": [
        {
          "internalType": "uint256[]",
          "name": "_rentPrices",
          "type": "uint256[]"
        }
      ],
      "name": "setPrices",
      "outputs": [],
      "stateMutability": "nonpayable",
      "type": "function"
    },
    {
      "inputs": [
        {
          "internalType": "bytes4",
          "name": "interfaceID",
          "type": "bytes4"
        }
      ],
      "name": "supportsInterface",
      "outputs": [
        {
          "internalType": "bool",
          "name": "",
          "type": "bool"
        }
      ],
      "stateMutability": "pure",
      "type": "function",
      "constant": true
    }
  ],
  "bytecode": "0x60806040523480156200001157600080fd5b5060405162000dac38038062000dac833981016040819052620000349162000235565b6200005a6200004b64010000000062000075810204565b64010000000062000079810204565b6200006e81640100000000620000c9810204565b506200037a565b3390565b60008054600160a060020a03838116600160a060020a0319831681178455604051919092169283917f8be0079c531659141344cd1fd0a4f28419497f9722a3daafe3b4186f6b6457e09190a35050565b620000dc64010000000062000075810204565b600160a060020a0316620000f8640100000000620001bf810204565b600160a060020a0316146200016d576040517f08c379a000000000000000000000000000000000000000000000000000000000815260206004820181905260248201527f4f776e61626c653a2063616c6c6572206973206e6f7420746865206f776e6572604482015260640160405180910390fd5b805162000182906001906020840190620001ce565b507f73422d94aedd596c2d4d39f27a01033adc390a9054efaf259afefd95ef7331df81604051620001b4919062000305565b60405180910390a150565b600054600160a060020a031690565b8280548282559060005260206000209081019282156200020c579160200282015b828111156200020c578251825591602001919060010190620001ef565b506200021a9291506200021e565b5090565b5b808211156200021a57600081556001016200021f565b600060208083850312156200024957600080fd5b825167ffffffffffffffff808211156200026257600080fd5b818501915085601f8301126200027757600080fd5b8151818111156200028c576200028c6200034b565b838102604051601f19603f83011681018181108582111715620002b357620002b36200034b565b604052828152858101935084860182860187018a1015620002d357600080fd5b600095505b83861015620002f8578051855260019590950194938601938601620002d8565b5098975050505050505050565b6020808252825182820181905260009190848201906040850190845b818110156200033f5783518352928401929184019160010162000321565b50909695505050505050565b7f4e487b7100000000000000000000000000000000000000000000000000000000600052604160045260246000fd5b610a22806200038a6000396000f3fe608060405234801561001057600080fd5b506004361061009a576000357c01000000000000000000000000000000000000000000000000000000009004806379cf92d31161007857806379cf92d3146100f25780638da5cb5b14610105578063f2fde38b14610120578063fe2c61981461013357600080fd5b806301ffc9a71461009f57806306d5d0b6146100c7578063715018a6146100e8575b600080fd5b6100b26100ad3660046107d2565b610146565b60405190151581526020015b60405180910390f35b6100da6100d5366004610883565b6101d9565b6040519081526020016100be565b6100f06101fa565b005b6100f061010036600461070e565b61023c565b600054604051600160a060020a0390911681526020016100be565b6100f061012e3660046106de565b6102b7565b6100da610141366004610811565b61036f565b60007bffffffffffffffffffffffffffffffffffffffffffffffffffffffff1982167f01ffc9a70000000000000000000000000000000000000000000000000000000014806101d357507bffffffffffffffffffffffffffffffffffffffffffffffffffffffff1982167ffe2c619800000000000000000000000000000000000000000000000000000000145b92915050565b600181815481106101e957600080fd5b600091825260209091200154905081565b600054600160a060020a031633146102305760405160e560020a62461bcd028152600401610227906108e0565b60405180910390fd5b61023a600061046c565b565b600054600160a060020a031633146102695760405160e560020a62461bcd028152600401610227906108e0565b805161027c90600190602084019061067e565b507f73422d94aedd596c2d4d39f27a01033adc390a9054efaf259afefd95ef7331df816040516102ac919061089c565b60405180910390a150565b600054600160a060020a031633146102e45760405160e560020a62461bcd028152600401610227906108e0565b600160a060020a0381166103635760405160e560020a62461bcd02815260206004820152602660248201527f4f776e61626c653a206e6577206f776e657220697320746865207a65726f206160448201527f64647265737300000000000000000000000000000000000000000000000000006064820152608401610227565b61036c8161046c565b50565b6000806103b184848080601f0160208091040260200160405190810160405280939291908181526020018383808284376000920191909152506104c992505050565b6001549091508111156103c357506001545b6000811161043c5760405160e560020a62461bcd02815260206004820152603360248201527f56616e6974794e616d655072696365733a204e616d65206c656e67746820697360448201527f206e6f742067726561746572207468616e2030000000000000000000000000006064820152608401610227565b6001610448818361092d565b815481106104585761045861098e565b906000526020600020015491505092915050565b60008054600160a060020a0383811673ffffffffffffffffffffffffffffffffffffffff19831681178455604051919092169283917f8be0079c531659141344cd1fd0a4f28419497f9722a3daafe3b4186f6b6457e09190a35050565b8051600090819081905b808210156106755760008583815181106104ef576104ef61098e565b01602001517f0100000000000000000000000000000000000000000000000000000000000000908190040290507f8000000000000000000000000000000000000000000000000000000000000000600160f860020a03198216101561056057610559600184610915565b9250610662565b7fe000000000000000000000000000000000000000000000000000000000000000600160f860020a03198216101561059d57610559600284610915565b7ff000000000000000000000000000000000000000000000000000000000000000600160f860020a0319821610156105da57610559600384610915565b7ff800000000000000000000000000000000000000000000000000000000000000600160f860020a03198216101561061757610559600484610915565b7ffc00000000000000000000000000000000000000000000000000000000000000600160f860020a03198216101561065457610559600584610915565b61065f600684610915565b92505b508261066d81610944565b9350506104d3565b50909392505050565b8280548282559060005260206000209081019282156106b9579160200282015b828111156106b957825182559160200191906001019061069e565b506106c59291506106c9565b5090565b5b808211156106c557600081556001016106ca565b6000602082840312156106f057600080fd5b8135600160a060020a038116811461070757600080fd5b9392505050565b6000602080838503121561072157600080fd5b823567ffffffffffffffff8082111561073957600080fd5b818501915085601f83011261074d57600080fd5b81358181111561075f5761075f6109bd565b838102604051601f19603f83011681018181108582111715610783576107836109bd565b604052828152858101935084860182860187018a10156107a257600080fd5b600095505b838610156107c55780358552600195909501949386019386016107a7565b5098975050505050505050565b6000602082840312156107e457600080fd5b81357bffffffffffffffffffffffffffffffffffffffffffffffffffffffff198116811461070757600080fd5b6000806020838503121561082457600080fd5b823567ffffffffffffffff8082111561083c57600080fd5b818501915085601f83011261085057600080fd5b81358181111561085f57600080fd5b86602082850101111561087157600080fd5b60209290920196919550909350505050565b60006020828403121561089557600080fd5b5035919050565b6020808252825182820181905260009190848201906040850190845b818110156108d4578351835292840192918401916001016108b8565b50909695505050505050565b6020808252818101527f4f776e61626c653a2063616c6c6572206973206e6f7420746865206f776e6572604082015260600190565b600082198211156109285761092861095f565b500190565b60008282101561093f5761093f61095f565b500390565b60006000198214156109585761095861095f565b5060010190565b7f4e487b7100000000000000000000000000000000000000000000000000000000600052601160045260246000fd5b7f4e487b7100000000000000000000000000000000000000000000000000000000600052603260045260246000fd5b7f4e487b7100000000000000000000000000000000000000000000000000000000600052604160045260246000fdfea2646970667358221220edaaddc02e5b18e98b05a7224585e3db573b25c97cd5dcf1961aefcfccaed26164736f6c63430008070033",
  "immutableReferences": {},
  "source": "// SPDX-License-Identifier: UNLICENSED\r\npragma solidity ^0.8.7;\r\n\r\nimport \"@openzeppelin/contracts/access/Ownable.sol\";\r\nimport \"./interfaces/PriceOracle.sol\";\r\nimport \"./libraries/StringUtils.sol\";\r\n\r\n// VanityNamesPrices sets a price\r\ncontract VanityNamePrices is Ownable, PriceOracle{\r\n    using StringUtils for *;\r\n\r\n    // Rent in base price by length. Element 0 is for 1-length names, and so on.\r\n    uint[] public rentPrices;\r\n\r\n    bytes4 constant private INTERFACE_META_ID = bytes4(keccak256(\"supportsInterface(bytes4)\"));\r\n    bytes4 constant private PRICE_ORACLE = bytes4(keccak256(\"price(string)\"));\r\n\r\n    event RentPriceChanged(uint[] prices);\r\n\r\n     /**\r\n     * @dev Initializer for VanityNamePrices\r\n     * @param _rentPrices The price array. Each element corresponds to a specific\r\n     *                    name length; names longer than the length of the array\r\n     *                    default to the price of the last element. Values are\r\n     *                    in tfuelWei per seconds.\r\n     */\r\n    constructor(uint[] memory _rentPrices) {\r\n        setPrices(_rentPrices);\r\n    }\r\n\r\n    /**\r\n     * @dev Get price for specified name\r\n     * @param name Name for which function return price\r\n     */\r\n    function price(string calldata name) external override view returns (uint) {\r\n        uint len = name.strlen();\r\n        if (len > rentPrices.length) {\r\n            len = rentPrices.length;\r\n        }\r\n        require(len > 0, \"VanityNamePrices: Name length is not greater than 0\");\r\n        return rentPrices[len - 1];\r\n    }\r\n    \r\n    /**\r\n     * @dev Sets rent prices.\r\n     * @param _rentPrices The price array. Each element corresponds to a specific\r\n     *                    name length; names longer than the length of the array\r\n     *                    default to the price of the last element. Values are\r\n     *                    in tfuelWei per seconds.\r\n     */\r\n    function setPrices(uint[] memory _rentPrices) public onlyOwner {\r\n        rentPrices = _rentPrices;\r\n        emit RentPriceChanged(_rentPrices);\r\n    }\r\n\r\n    function supportsInterface(bytes4 interfaceID) public pure returns (bool) {\r\n        return interfaceID == INTERFACE_META_ID || interfaceID == PRICE_ORACLE;\r\n    }\r\n}",
  "sourcePath": "D:\\Posao-Stefan\\Stefan-razno\\Blockchain\\AdvancedBlockchain\\VanityNames\\contracts\\VanityNamePrices.sol",
  "compiler": {
    "name": "solc",
    "version": "0.8.7+commit.e28d00a7.Emscripten.clang"
  },
  "schemaVersion": "3.4.3",
  "updatedAt": "2021-09-20T13:04:36.346Z",
  "networkType": "ethereum",
  "devdoc": {
    "kind": "dev",
    "methods": {
      "constructor": {
        "details": "Initializer for VanityNamePrices",
        "params": {
          "_rentPrices": "The price array. Each element corresponds to a specific                    name length; names longer than the length of the array                    default to the price of the last element. Values are                    in tfuelWei per seconds."
        }
      },
      "owner()": {
        "details": "Returns the address of the current owner."
      },
      "price(string)": {
        "details": "Get price for specified name",
        "params": {
          "name": "Name for which function return price"
        }
      },
      "renounceOwnership()": {
        "details": "Leaves the contract without owner. It will not be possible to call `onlyOwner` functions anymore. Can only be called by the current owner. NOTE: Renouncing ownership will leave the contract without an owner, thereby removing any functionality that is only available to the owner."
      },
      "setPrices(uint256[])": {
        "details": "Sets rent prices.",
        "params": {
          "_rentPrices": "The price array. Each element corresponds to a specific                    name length; names longer than the length of the array                    default to the price of the last element. Values are                    in tfuelWei per seconds."
        }
      },
      "transferOwnership(address)": {
        "details": "Transfers ownership of the contract to a new account (`newOwner`). Can only be called by the current owner."
      }
    },
    "version": 1
  },
  "userdoc": {
    "kind": "user",
    "methods": {},
    "version": 1
  }
}