{
  "contractName": "VanityNameRegistrar",
  "abi": [
    {
      "inputs": [
        {
          "internalType": "uint256",
          "name": "_gracePeriod",
          "type": "uint256"
        }
      ],
      "stateMutability": "nonpayable",
      "type": "constructor"
    },
    {
      "anonymous": false,
      "inputs": [
        {
          "indexed": true,
          "internalType": "address",
          "name": "owner",
          "type": "address"
        },
        {
          "indexed": true,
          "internalType": "address",
          "name": "approved",
          "type": "address"
        },
        {
          "indexed": true,
          "internalType": "uint256",
          "name": "tokenId",
          "type": "uint256"
        }
      ],
      "name": "Approval",
      "type": "event"
    },
    {
      "anonymous": false,
      "inputs": [
        {
          "indexed": true,
          "internalType": "address",
          "name": "owner",
          "type": "address"
        },
        {
          "indexed": true,
          "internalType": "address",
          "name": "operator",
          "type": "address"
        },
        {
          "indexed": false,
          "internalType": "bool",
          "name": "approved",
          "type": "bool"
        }
      ],
      "name": "ApprovalForAll",
      "type": "event"
    },
    {
      "anonymous": false,
      "inputs": [
        {
          "indexed": true,
          "internalType": "address",
          "name": "controller",
          "type": "address"
        }
      ],
      "name": "ControllerChanged",
      "type": "event"
    },
    {
      "anonymous": false,
      "inputs": [
        {
          "indexed": true,
          "internalType": "uint256",
          "name": "gracePeriod",
          "type": "uint256"
        }
      ],
      "name": "GracePeriodChanged",
      "type": "event"
    },
    {
      "anonymous": false,
      "inputs": [
        {
          "indexed": true,
          "internalType": "uint256",
          "name": "id",
          "type": "uint256"
        },
        {
          "indexed": true,
          "internalType": "address",
          "name": "owner",
          "type": "address"
        },
        {
          "indexed": false,
          "internalType": "uint256",
          "name": "expires",
          "type": "uint256"
        }
      ],
      "name": "NameRegistered",
      "type": "event"
    },
    {
      "anonymous": false,
      "inputs": [
        {
          "indexed": true,
          "internalType": "uint256",
          "name": "id",
          "type": "uint256"
        },
        {
          "indexed": false,
          "internalType": "uint256",
          "name": "expires",
          "type": "uint256"
        }
      ],
      "name": "NameRenewed",
      "type": "event"
    },
    {
      "anonymous": false,
      "inputs": [
        {
          "indexed": true,
          "internalType": "address",
          "name": "previousOwner",
          "type": "address"
        },
        {
          "indexed": true,
          "internalType": "address",
          "name": "newOwner",
          "type": "address"
        }
      ],
      "name": "OwnershipTransferred",
      "type": "event"
    },
    {
      "anonymous": false,
      "inputs": [
        {
          "indexed": true,
          "internalType": "address",
          "name": "from",
          "type": "address"
        },
        {
          "indexed": true,
          "internalType": "address",
          "name": "to",
          "type": "address"
        },
        {
          "indexed": true,
          "internalType": "uint256",
          "name": "tokenId",
          "type": "uint256"
        }
      ],
      "name": "Transfer",
      "type": "event"
    },
    {
      "inputs": [
        {
          "internalType": "address",
          "name": "to",
          "type": "address"
        },
        {
          "internalType": "uint256",
          "name": "tokenId",
          "type": "uint256"
        }
      ],
      "name": "approve",
      "outputs": [],
      "stateMutability": "nonpayable",
      "type": "function"
    },
    {
      "inputs": [
        {
          "internalType": "address",
          "name": "owner",
          "type": "address"
        }
      ],
      "name": "balanceOf",
      "outputs": [
        {
          "internalType": "uint256",
          "name": "",
          "type": "uint256"
        }
      ],
      "stateMutability": "view",
      "type": "function",
      "constant": true
    },
    {
      "inputs": [
        {
          "internalType": "uint256",
          "name": "tokenId",
          "type": "uint256"
        }
      ],
      "name": "getApproved",
      "outputs": [
        {
          "internalType": "address",
          "name": "",
          "type": "address"
        }
      ],
      "stateMutability": "view",
      "type": "function",
      "constant": true
    },
    {
      "inputs": [],
      "name": "gracePeriod",
      "outputs": [
        {
          "internalType": "uint256",
          "name": "",
          "type": "uint256"
        }
      ],
      "stateMutability": "view",
      "type": "function",
      "constant": true
    },
    {
      "inputs": [
        {
          "internalType": "address",
          "name": "owner",
          "type": "address"
        },
        {
          "internalType": "address",
          "name": "operator",
          "type": "address"
        }
      ],
      "name": "isApprovedForAll",
      "outputs": [
        {
          "internalType": "bool",
          "name": "",
          "type": "bool"
        }
      ],
      "stateMutability": "view",
      "type": "function",
      "constant": true
    },
    {
      "inputs": [],
      "name": "name",
      "outputs": [
        {
          "internalType": "string",
          "name": "",
          "type": "string"
        }
      ],
      "stateMutability": "view",
      "type": "function",
      "constant": true
    },
    {
      "inputs": [],
      "name": "owner",
      "outputs": [
        {
          "internalType": "address",
          "name": "",
          "type": "address"
        }
      ],
      "stateMutability": "view",
      "type": "function",
      "constant": true
    },
    {
      "inputs": [],
      "name": "renounceOwnership",
      "outputs": [],
      "stateMutability": "nonpayable",
      "type": "function"
    },
    {
      "inputs": [
        {
          "internalType": "address",
          "name": "from",
          "type": "address"
        },
        {
          "internalType": "address",
          "name": "to",
          "type": "address"
        },
        {
          "internalType": "uint256",
          "name": "tokenId",
          "type": "uint256"
        }
      ],
      "name": "safeTransferFrom",
      "outputs": [],
      "stateMutability": "nonpayable",
      "type": "function"
    },
    {
      "inputs": [
        {
          "internalType": "address",
          "name": "from",
          "type": "address"
        },
        {
          "internalType": "address",
          "name": "to",
          "type": "address"
        },
        {
          "internalType": "uint256",
          "name": "tokenId",
          "type": "uint256"
        },
        {
          "internalType": "bytes",
          "name": "_data",
          "type": "bytes"
        }
      ],
      "name": "safeTransferFrom",
      "outputs": [],
      "stateMutability": "nonpayable",
      "type": "function"
    },
    {
      "inputs": [
        {
          "internalType": "address",
          "name": "operator",
          "type": "address"
        },
        {
          "internalType": "bool",
          "name": "approved",
          "type": "bool"
        }
      ],
      "name": "setApprovalForAll",
      "outputs": [],
      "stateMutability": "nonpayable",
      "type": "function"
    },
    {
      "inputs": [
        {
          "internalType": "bytes4",
          "name": "interfaceId",
          "type": "bytes4"
        }
      ],
      "name": "supportsInterface",
      "outputs": [
        {
          "internalType": "bool",
          "name": "",
          "type": "bool"
        }
      ],
      "stateMutability": "view",
      "type": "function",
      "constant": true
    },
    {
      "inputs": [],
      "name": "symbol",
      "outputs": [
        {
          "internalType": "string",
          "name": "",
          "type": "string"
        }
      ],
      "stateMutability": "view",
      "type": "function",
      "constant": true
    },
    {
      "inputs": [
        {
          "internalType": "uint256",
          "name": "tokenId",
          "type": "uint256"
        }
      ],
      "name": "tokenURI",
      "outputs": [
        {
          "internalType": "string",
          "name": "",
          "type": "string"
        }
      ],
      "stateMutability": "view",
      "type": "function",
      "constant": true
    },
    {
      "inputs": [
        {
          "internalType": "address",
          "name": "from",
          "type": "address"
        },
        {
          "internalType": "address",
          "name": "to",
          "type": "address"
        },
        {
          "internalType": "uint256",
          "name": "tokenId",
          "type": "uint256"
        }
      ],
      "name": "transferFrom",
      "outputs": [],
      "stateMutability": "nonpayable",
      "type": "function"
    },
    {
      "inputs": [
        {
          "internalType": "address",
          "name": "newOwner",
          "type": "address"
        }
      ],
      "name": "transferOwnership",
      "outputs": [],
      "stateMutability": "nonpayable",
      "type": "function"
    },
    {
      "inputs": [
        {
          "internalType": "address",
          "name": "_controller",
          "type": "address"
        }
      ],
      "name": "setController",
      "outputs": [],
      "stateMutability": "nonpayable",
      "type": "function"
    },
    {
      "inputs": [
        {
          "internalType": "uint256",
          "name": "_gracePeriod",
          "type": "uint256"
        }
      ],
      "name": "setGracePeriod",
      "outputs": [],
      "stateMutability": "nonpayable",
      "type": "function"
    },
    {
      "inputs": [
        {
          "internalType": "uint256",
          "name": "id",
          "type": "uint256"
        }
      ],
      "name": "nameExpires",
      "outputs": [
        {
          "internalType": "uint256",
          "name": "",
          "type": "uint256"
        }
      ],
      "stateMutability": "view",
      "type": "function",
      "constant": true
    },
    {
      "inputs": [
        {
          "internalType": "uint256",
          "name": "tokenId",
          "type": "uint256"
        }
      ],
      "name": "ownerOf",
      "outputs": [
        {
          "internalType": "address",
          "name": "",
          "type": "address"
        }
      ],
      "stateMutability": "view",
      "type": "function",
      "constant": true
    },
    {
      "inputs": [
        {
          "internalType": "uint256",
          "name": "id",
          "type": "uint256"
        }
      ],
      "name": "available",
      "outputs": [
        {
          "internalType": "bool",
          "name": "",
          "type": "bool"
        }
      ],
      "stateMutability": "view",
      "type": "function",
      "constant": true
    },
    {
      "inputs": [
        {
          "internalType": "uint256",
          "name": "id",
          "type": "uint256"
        },
        {
          "internalType": "address",
          "name": "owner",
          "type": "address"
        },
        {
          "internalType": "uint256",
          "name": "duration",
          "type": "uint256"
        }
      ],
      "name": "register",
      "outputs": [
        {
          "internalType": "uint256",
          "name": "",
          "type": "uint256"
        }
      ],
      "stateMutability": "nonpayable",
      "type": "function"
    },
    {
      "inputs": [
        {
          "internalType": "uint256",
          "name": "id",
          "type": "uint256"
        },
        {
          "internalType": "uint256",
          "name": "duration",
          "type": "uint256"
        }
      ],
      "name": "renew",
      "outputs": [
        {
          "internalType": "uint256",
          "name": "",
          "type": "uint256"
        }
      ],
      "stateMutability": "nonpayable",
      "type": "function"
    }
  ],
  "bytecode": "0x60806040523480156200001157600080fd5b5060405162001f6438038062001f648339810160408190526200003491620001fd565b6040518060400160405280601281526020017f416476616e636564426c6f636b636861696e00000000000000000000000000008152506040518060400160405280600481526020017f4142414700000000000000000000000000000000000000000000000000000000815250620000cc620000bd62000103640100000000026401000000009004565b64010000000062000107810204565b8151620000e190600190602085019062000157565b508051620000f790600290602084019062000157565b5050506008556200026d565b3390565b60008054600160a060020a03838116600160a060020a0319831681178455604051919092169283917f8be0079c531659141344cd1fd0a4f28419497f9722a3daafe3b4186f6b6457e09190a35050565b828054620001659062000217565b90600052602060002090601f016020900481019282620001895760008555620001d4565b82601f10620001a457805160ff1916838001178555620001d4565b82800160010185558215620001d4579182015b82811115620001d4578251825591602001919060010190620001b7565b50620001e2929150620001e6565b5090565b5b80821115620001e25760008155600101620001e7565b6000602082840312156200021057600080fd5b5051919050565b6002810460018216806200022c57607f821691505b6020821081141562000267577f4e487b7100000000000000000000000000000000000000000000000000000000600052602260045260246000fd5b50919050565b611ce7806200027d6000396000f3fe608060405234801561001057600080fd5b506004361061016a576000357c01000000000000000000000000000000000000000000000000000000009004806395d89b41116100e0578063c87b56dd11610099578063c87b56dd146102cf578063d6e4fa86146102e2578063e985e9c514610302578063f2f659601461033e578063f2fde38b14610351578063fca247ac1461036457600080fd5b806395d89b411461027257806396e494e81461027a578063a06db7dc1461028d578063a22cb46514610296578063b88d4fde146102a9578063c475abff146102bc57600080fd5b806342842e0e1161013257806342842e0e146101ff5780636352211e1461021257806370a0823114610225578063715018a6146102465780638da5cb5b1461024e57806392eefe9b1461025f57600080fd5b806301ffc9a71461016f57806306fdde0314610197578063081812fc146101ac578063095ea7b3146101d757806323b872dd146101ec575b600080fd5b61018261017d3660046118cb565b610377565b60405190151581526020015b60405180910390f35b61019f610414565b60405161018e91906119fc565b6101bf6101ba366004611905565b6104a6565b604051600160a060020a03909116815260200161018e565b6101ea6101e53660046118a1565b610554565b005b6101ea6101fa36600461174d565b61068c565b6101ea61020d36600461174d565b6106c0565b6101bf610220366004611905565b6106db565b6102386102333660046116ff565b6106fe565b60405190815260200161018e565b6101ea61079b565b600054600160a060020a03166101bf565b6101ea61026d3660046116ff565b6107d4565b61019f610858565b610182610288366004611905565b610867565b61023860085481565b6101ea6102a4366004611865565b61088e565b6101ea6102b7366004611789565b610956565b6102386102ca366004611943565b610991565b61019f6102dd366004611905565b610afe565b6102386102f0366004611905565b60009081526009602052604090205490565b61018261031036600461171a565b600160a060020a03918216600090815260066020908152604080832093909416825291909152205460ff1690565b6101ea61034c366004611905565b610bf7565b6101ea61035f3660046116ff565b610c57565b61023861037236600461191e565b610d0f565b6000600160e060020a031982167f80ac58cd0000000000000000000000000000000000000000000000000000000014806103da5750600160e060020a031982167f5b5e139f00000000000000000000000000000000000000000000000000000000145b8061040e57507f01ffc9a700000000000000000000000000000000000000000000000000000000600160e060020a03198316145b92915050565b60606001805461042390611bca565b80601f016020809104026020016040519081016040528092919081815260200182805461044f90611bca565b801561049c5780601f106104715761010080835404028352916020019161049c565b820191906000526020600020905b81548152906001019060200180831161047f57829003601f168201915b5050505050905090565b600081815260036020526040812054600160a060020a03166105385760405160e560020a62461bcd02815260206004820152602c60248201527f4552433732313a20617070726f76656420717565727920666f72206e6f6e657860448201527f697374656e7420746f6b656e000000000000000000000000000000000000000060648201526084015b60405180910390fd5b50600090815260056020526040902054600160a060020a031690565b600061055f82610e5c565b905080600160a060020a031683600160a060020a031614156105ec5760405160e560020a62461bcd02815260206004820152602160248201527f4552433732313a20617070726f76616c20746f2063757272656e74206f776e6560448201527f7200000000000000000000000000000000000000000000000000000000000000606482015260840161052f565b33600160a060020a038216148061060857506106088133610310565b61067d5760405160e560020a62461bcd02815260206004820152603860248201527f4552433732313a20617070726f76652063616c6c6572206973206e6f74206f7760448201527f6e6572206e6f7220617070726f76656420666f7220616c6c0000000000000000606482015260840161052f565b6106878383610eea565b505050565b6106963382610f65565b6106b55760405160e560020a62461bcd02815260040161052f90611afe565b610687838383610fe0565b61068783838360405180602001604052806000815250610956565b60008181526009602052604081205442106106f557600080fd5b61040e82610e5c565b6000600160a060020a03821661077f5760405160e560020a62461bcd02815260206004820152602a60248201527f4552433732313a2062616c616e636520717565727920666f7220746865207a6560448201527f726f206164647265737300000000000000000000000000000000000000000000606482015260840161052f565b50600160a060020a031660009081526004602052604090205490565b600054600160a060020a031633146107c85760405160e560020a62461bcd02815260040161052f90611ac9565b6107d260006111c0565b565b600054600160a060020a031633146108015760405160e560020a62461bcd02815260040161052f90611ac9565b6007805473ffffffffffffffffffffffffffffffffffffffff1916600160a060020a0383169081179091556040517f027c3e080ed9215f564a9455a666f7e459b3edc0bb6e02a1bf842fde4d0ccfc190600090a250565b60606002805461042390611bca565b600854600082815260096020526040812054909142916108879190611b5b565b1092915050565b600160a060020a0382163314156108ea5760405160e560020a62461bcd02815260206004820152601960248201527f4552433732313a20617070726f766520746f2063616c6c657200000000000000604482015260640161052f565b336000818152600660209081526040808320600160a060020a03871680855290835292819020805460ff191686151590811790915590519081529192917f17307eab39ab6107e8899845ad3d59bd9653f200f220920489ca2b5937696c31910160405180910390a35050565b6109603383610f65565b61097f5760405160e560020a62461bcd02815260040161052f90611afe565b61098b8484848461121d565b50505050565b600754600090600160a060020a031633146109c15760405160e560020a62461bcd02815260040161052f90611a6c565b60085460008481526009602052604090205442916109de91611b5b565b1015610a7c5760405160e560020a62461bcd028152602060048201526044602482018190527f56616e6974794e616d655265676973747261723a204e616d65206d7573742062908201527f6520726567697374657265642068657265206f7220696e20677261636520706560648201527f72696f6400000000000000000000000000000000000000000000000000000000608482015260a40161052f565b60008381526009602052604081208054849290610a9a908490611b5b565b90915550506000838152600960205260409081902054905184917f9b87a00e30f1ac65d898f070f8a3488fe60517182d0a2098e1b4b93a54aa9bd691610ae291815260200190565b60405180910390a2505060009081526009602052604090205490565b600081815260036020526040902054606090600160a060020a0316610b8e5760405160e560020a62461bcd02815260206004820152602f60248201527f4552433732314d657461646174613a2055524920717565727920666f72206e6f60448201527f6e6578697374656e7420746f6b656e0000000000000000000000000000000000606482015260840161052f565b6000610ba560408051602081019091526000815290565b90506000815111610bc55760405180602001604052806000815250610bf0565b80610bcf84611253565b604051602001610be0929190611991565b6040516020818303038152906040525b9392505050565b600054600160a060020a03163314610c245760405160e560020a62461bcd02815260040161052f90611ac9565b600881905560405181907fcc2c34a1adf0911114053f75b51b2b1f8fc9ef9e25f0a5f12f210032b5b0a1b290600090a250565b600054600160a060020a03163314610c845760405160e560020a62461bcd02815260040161052f90611ac9565b600160a060020a038116610d035760405160e560020a62461bcd02815260206004820152602660248201527f4f776e61626c653a206e6577206f776e657220697320746865207a65726f206160448201527f6464726573730000000000000000000000000000000000000000000000000000606482015260840161052f565b610d0c816111c0565b50565b600754600090600160a060020a03163314610d3f5760405160e560020a62461bcd02815260040161052f90611a6c565b610d4884610867565b610dbd5760405160e560020a62461bcd02815260206004820152602860248201527f56616e6974794e616d655265676973747261723a204964206973206e6f74206160448201527f7661696c61626c65000000000000000000000000000000000000000000000000606482015260840161052f565b610dc78242611b5b565b600085815260096020908152604080832093909355600390522054600160a060020a031615610df957610df9846113a4565b610e03838561144c565b600160a060020a038316847fb3d987963d01b2f68493b4bdb130988f157ea43070d4ad840fee0466ed9370d9610e398542611b5b565b60405190815260200160405180910390a3610e548242611b5b565b949350505050565b600081815260036020526040812054600160a060020a03168061040e5760405160e560020a62461bcd02815260206004820152602960248201527f4552433732313a206f776e657220717565727920666f72206e6f6e657869737460448201527f656e7420746f6b656e0000000000000000000000000000000000000000000000606482015260840161052f565b6000818152600560205260409020805473ffffffffffffffffffffffffffffffffffffffff1916600160a060020a0384169081179091558190610f2c82610e5c565b600160a060020a03167f8c5be1e5ebec7d5bd14f71427d1e84f3dd0314c0f7b2291e5b200ac8c7c3b92560405160405180910390a45050565b600080610f71836106db565b905080600160a060020a031684600160a060020a03161480610fac575083600160a060020a0316610fa1846104a6565b600160a060020a0316145b80610e545750600160a060020a0380821660009081526006602090815260408083209388168352929052205460ff16610e54565b82600160a060020a0316610ff382610e5c565b600160a060020a0316146110725760405160e560020a62461bcd02815260206004820152602960248201527f4552433732313a207472616e73666572206f6620746f6b656e2074686174206960448201527f73206e6f74206f776e0000000000000000000000000000000000000000000000606482015260840161052f565b600160a060020a0382166110f05760405160e560020a62461bcd028152602060048201526024808201527f4552433732313a207472616e7366657220746f20746865207a65726f2061646460448201527f7265737300000000000000000000000000000000000000000000000000000000606482015260840161052f565b6110fb600082610eea565b600160a060020a0383166000908152600460205260408120805460019290611124908490611b87565b9091555050600160a060020a0382166000908152600460205260408120805460019290611152908490611b5b565b9091555050600081815260036020526040808220805473ffffffffffffffffffffffffffffffffffffffff1916600160a060020a0386811691821790925591518493918716917fddf252ad1be2c89b69c2b068fc378daa952ba7f163c4a11628f55a4df523b3ef91a4505050565b60008054600160a060020a0383811673ffffffffffffffffffffffffffffffffffffffff19831681178455604051919092169283917f8be0079c531659141344cd1fd0a4f28419497f9722a3daafe3b4186f6b6457e09190a35050565b611228848484610fe0565b611234848484846115a1565b61098b5760405160e560020a62461bcd02815260040161052f90611a0f565b60608161129357505060408051808201909152600181527f3000000000000000000000000000000000000000000000000000000000000000602082015290565b8160005b81156112bd57806112a781611c08565b91506112b69050600a83611b73565b9150611297565b60008167ffffffffffffffff8111156112d8576112d8611c82565b6040519080825280601f01601f191660200182016040528015611302576020820181803683370190505b5090505b8415610e5457611317600183611b87565b9150611324600a86611c23565b61132f906030611b5b565b7f01000000000000000000000000000000000000000000000000000000000000000281838151811061136357611363611c69565b60200101907effffffffffffffffffffffffffffffffffffffffffffffffffffffffffffff1916908160001a90535061139d600a86611b73565b9450611306565b60006113af82610e5c565b90506113bc600083610eea565b600160a060020a03811660009081526004602052604081208054600192906113e5908490611b87565b9091555050600082815260036020526040808220805473ffffffffffffffffffffffffffffffffffffffff1916905551839190600160a060020a038416907fddf252ad1be2c89b69c2b068fc378daa952ba7f163c4a11628f55a4df523b3ef908390a45050565b600160a060020a0382166114a55760405160e560020a62461bcd02815260206004820181905260248201527f4552433732313a206d696e7420746f20746865207a65726f2061646472657373604482015260640161052f565b600081815260036020526040902054600160a060020a03161561150d5760405160e560020a62461bcd02815260206004820152601c60248201527f4552433732313a20746f6b656e20616c7265616479206d696e74656400000000604482015260640161052f565b600160a060020a0382166000908152600460205260408120805460019290611536908490611b5b565b9091555050600081815260036020526040808220805473ffffffffffffffffffffffffffffffffffffffff1916600160a060020a03861690811790915590518392907fddf252ad1be2c89b69c2b068fc378daa952ba7f163c4a11628f55a4df523b3ef908290a45050565b6000600160a060020a0384163b156116d8576040517f150b7a02000000000000000000000000000000000000000000000000000000008152600160a060020a0385169063150b7a02906115fe9033908990889088906004016119c0565b602060405180830381600087803b15801561161857600080fd5b505af1925050508015611648575060408051601f3d908101601f19168201909252611645918101906118e8565b60015b6116a5573d808015611676576040519150601f19603f3d011682016040523d82523d6000602084013e61167b565b606091505b50805161169d5760405160e560020a62461bcd02815260040161052f90611a0f565b805181602001fd5b600160e060020a0319167f150b7a0200000000000000000000000000000000000000000000000000000000149050610e54565b506001949350505050565b8035600160a060020a03811681146116fa57600080fd5b919050565b60006020828403121561171157600080fd5b610bf0826116e3565b6000806040838503121561172d57600080fd5b611736836116e3565b9150611744602084016116e3565b90509250929050565b60008060006060848603121561176257600080fd5b61176b846116e3565b9250611779602085016116e3565b9150604084013590509250925092565b6000806000806080858703121561179f57600080fd5b6117a8856116e3565b93506117b6602086016116e3565b925060408501359150606085013567ffffffffffffffff808211156117da57600080fd5b818701915087601f8301126117ee57600080fd5b81358181111561180057611800611c82565b604051601f8201601f19908116603f0116810190838211818310171561182857611828611c82565b816040528281528a602084870101111561184157600080fd5b82602086016020830137600060208483010152809550505050505092959194509250565b6000806040838503121561187857600080fd5b611881836116e3565b91506020830135801515811461189657600080fd5b809150509250929050565b600080604083850312156118b457600080fd5b6118bd836116e3565b946020939093013593505050565b6000602082840312156118dd57600080fd5b8135610bf081611c9b565b6000602082840312156118fa57600080fd5b8151610bf081611c9b565b60006020828403121561191757600080fd5b5035919050565b60008060006060848603121561193357600080fd5b83359250611779602085016116e3565b6000806040838503121561195657600080fd5b50508035926020909101359150565b6000815180845261197d816020860160208601611b9e565b601f01601f19169290920160200192915050565b600083516119a3818460208801611b9e565b8351908301906119b7818360208801611b9e565b01949350505050565b6000600160a060020a038087168352808616602084015250836040830152608060608301526119f26080830184611965565b9695505050505050565b602081526000610bf06020830184611965565b60208082526032908201527f4552433732313a207472616e7366657220746f206e6f6e20455243373231526560408201527f63656976657220696d706c656d656e7465720000000000000000000000000000606082015260800190565b6020808252602d908201527f56616e6974794e616d655265676973747261723a2053656e646572206973206e60408201527f6f7420636f6e74726f6c6c657200000000000000000000000000000000000000606082015260800190565b6020808252818101527f4f776e61626c653a2063616c6c6572206973206e6f7420746865206f776e6572604082015260600190565b60208082526031908201527f4552433732313a207472616e736665722063616c6c6572206973206e6f74206f60408201527f776e6572206e6f7220617070726f766564000000000000000000000000000000606082015260800190565b60008219821115611b6e57611b6e611c37565b500190565b600082611b8257611b82611c50565b500490565b600082821015611b9957611b99611c37565b500390565b60005b83811015611bb9578181015183820152602001611ba1565b8381111561098b5750506000910152565b600281046001821680611bde57607f821691505b60208210811415611c025760e060020a634e487b7102600052602260045260246000fd5b50919050565b6000600019821415611c1c57611c1c611c37565b5060010190565b600082611c3257611c32611c50565b500690565b60e060020a634e487b7102600052601160045260246000fd5b60e060020a634e487b7102600052601260045260246000fd5b60e060020a634e487b7102600052603260045260246000fd5b60e060020a634e487b7102600052604160045260246000fd5b600160e060020a031981168114610d0c57600080fdfea26469706673582212201fea3611339a5147514cd8caf65aef4b4981acce0741b30b0df158042f684d5764736f6c63430008070033",
  "immutableReferences": {},
  "source": "// SPDX-License-Identifier: UNLICENSED\r\npragma solidity ^0.8.7;\r\n\r\nimport \"@openzeppelin/contracts/access/Ownable.sol\";\r\nimport \"@openzeppelin/contracts/token/ERC721/ERC721.sol\";\r\n\r\ncontract VanityNameRegistrar is Ownable, ERC721{\r\n\r\n    // Address of controller which can transfer, register and renew token (vanity names)\r\n    address private controller; \r\n\r\n    // Period in which user could rebuy name, and other users couldn't buy that name (and name is expired)\r\n    uint256 public gracePeriod;\r\n\r\n    mapping (uint256 => uint256) expiries;\r\n\r\n    event ControllerChanged(address indexed controller);\r\n    event GracePeriodChanged(uint256 indexed gracePeriod);\r\n    event NameRegistered(uint256 indexed id, address indexed owner, uint expires);\r\n    event NameRenewed(uint256 indexed id, uint expires);\r\n\r\n    modifier onlyController {\r\n        require(controller == msg.sender, \"VanityNameRegistrar: Sender is not controller\");\r\n        _;\r\n    }\r\n\r\n    /**\r\n     * @dev Initializer for VanityNameRegistrar\r\n     * @param _gracePeriod Period in which user could rebuy name, and other users couldn't buy that name (and name is expired)\r\n     */\r\n    constructor(uint256 _gracePeriod) ERC721(\"AdvancedBlockchain\", \"ABAG\")  {\r\n        gracePeriod = _gracePeriod;\r\n    }\r\n\r\n    /**\r\n     * @dev Setter for controller variable\r\n     * @param _controller address of controller which can transfer, register and renew token (vanity names)\r\n     */\r\n    function setController(address _controller) external onlyOwner {\r\n        controller = _controller;\r\n        \r\n        emit ControllerChanged(_controller);\r\n    }\r\n\r\n    /**\r\n     * @dev Setter for gracePeriod variable\r\n     * @param _gracePeriod Period in which user could rebuy name, and other users couldn't buy that name (and name is expired)\r\n     */\r\n    function setGracePeriod(uint256 _gracePeriod) external onlyOwner {\r\n        gracePeriod = _gracePeriod;\r\n\r\n        emit GracePeriodChanged(_gracePeriod);\r\n    }\r\n\r\n\r\n    /**\r\n     * @dev Check expiration timestamp for specified id\r\n     * @param id Token ID\r\n     * @return The expiration timestamp of the specified id.\r\n     */\r\n    function nameExpires(uint256 id) external view returns(uint) {\r\n        return expiries[id];\r\n    }\r\n\r\n    /**\r\n     * _isApprovedOrOwner which calls ownerOf(tokenId) and takes grace period into consideration instead of ERC721.ownerOf(tokenId);\r\n     * @dev Returns whether the given spender can transfer a given token ID\r\n     * @param spender address of the spender to query\r\n     * @param tokenId uint256 ID of the token to be transferred\r\n     * @return bool whether the msg.sender is approved for the given token ID,\r\n     *    is an operator of the owner, or is the owner of the token\r\n     */\r\n    function _isApprovedOrOwner(address spender, uint256 tokenId) internal view override returns (bool) {\r\n        address owner = ownerOf(tokenId);\r\n        return (spender == owner || getApproved(tokenId) == spender || isApprovedForAll(owner, spender));\r\n    }\r\n\r\n    /**\r\n     * @dev Gets the owner of the specified token ID. Names become unowned\r\n     *      when their registration expires.\r\n     * @param tokenId uint256 ID of the token to query the owner of\r\n     * @return address currently marked as the owner of the given token ID\r\n     */\r\n    function ownerOf(uint256 tokenId) public view override returns (address) {\r\n        require(expiries[tokenId] > block.timestamp);\r\n        return super.ownerOf(tokenId);\r\n    }\r\n\r\n    /**\r\n     * @dev Check is specified id available for registration\r\n     * @param id Token ID\r\n     * @return Returns true iff the specified name is available for registration\r\n     */\r\n    function available(uint256 id) public view returns (bool) {\r\n        // Not available if it's registered here or in its grace period.\r\n        return expiries[id] + gracePeriod < block.timestamp;\r\n    }\r\n\r\n    /**\r\n     * @dev Function that register name which is represented as token id\r\n     * @param id Token ID\r\n     * @param owner Owner of name (token)\r\n     * @param duration Period for how long name will be register for that owner\r\n     * @return Returns until that name is register\r\n     */\r\n    function register(uint256 id, address owner, uint duration) external onlyController returns(uint) {\r\n        require(available(id), \"VanityNameRegistrar: Id is not available\");\r\n\r\n        expiries[id] = block.timestamp + duration;\r\n        if(_exists(id)) {\r\n            // Name was previously owned, and expired\r\n            _burn(id);\r\n        }\r\n        _mint(owner, id);\r\n\r\n        emit NameRegistered(id, owner, block.timestamp + duration);\r\n\r\n        return block.timestamp + duration;\r\n    }\r\n\r\n    /**\r\n     * @dev Function that renew name which is currently not expiried or it is in grace period\r\n     * @param id Token ID\r\n     * @param duration Period for how long name will be register for that user\r\n     * @return Returns until that name is register\r\n     */\r\n    function renew(uint256 id, uint duration) external onlyController returns(uint) {\r\n        require(expiries[id] + gracePeriod >= block.timestamp, \"VanityNameRegistrar: Name must be registered here or in grace period\"); // Name must be registered here or in grace period\r\n\r\n        expiries[id] += duration;\r\n        emit NameRenewed(id, expiries[id]);\r\n        return expiries[id];\r\n    }\r\n}",
  "sourcePath": "D:\\Posao-Stefan\\Stefan-razno\\Blockchain\\AdvancedBlockchain\\VanityNames\\contracts\\VanityNameRegistrar.sol",
  "compiler": {
    "name": "solc",
    "version": "0.8.7+commit.e28d00a7.Emscripten.clang"
  },
  "schemaVersion": "3.4.3",
  "updatedAt": "2021-09-20T13:04:36.333Z",
  "networkType": "ethereum",
  "devdoc": {
    "kind": "dev",
    "methods": {
      "approve(address,uint256)": {
        "details": "See {IERC721-approve}."
      },
      "available(uint256)": {
        "details": "Check is specified id available for registration",
        "params": {
          "id": "Token ID"
        },
        "returns": {
          "_0": "Returns true iff the specified name is available for registration"
        }
      },
      "balanceOf(address)": {
        "details": "See {IERC721-balanceOf}."
      },
      "constructor": {
        "details": "Initializer for VanityNameRegistrar",
        "params": {
          "_gracePeriod": "Period in which user could rebuy name, and other users couldn't buy that name (and name is expired)"
        }
      },
      "getApproved(uint256)": {
        "details": "See {IERC721-getApproved}."
      },
      "isApprovedForAll(address,address)": {
        "details": "See {IERC721-isApprovedForAll}."
      },
      "name()": {
        "details": "See {IERC721Metadata-name}."
      },
      "nameExpires(uint256)": {
        "details": "Check expiration timestamp for specified id",
        "params": {
          "id": "Token ID"
        },
        "returns": {
          "_0": "The expiration timestamp of the specified id."
        }
      },
      "owner()": {
        "details": "Returns the address of the current owner."
      },
      "ownerOf(uint256)": {
        "details": "Gets the owner of the specified token ID. Names become unowned      when their registration expires.",
        "params": {
          "tokenId": "uint256 ID of the token to query the owner of"
        },
        "returns": {
          "_0": "address currently marked as the owner of the given token ID"
        }
      },
      "register(uint256,address,uint256)": {
        "details": "Function that register name which is represented as token id",
        "params": {
          "duration": "Period for how long name will be register for that owner",
          "id": "Token ID",
          "owner": "Owner of name (token)"
        },
        "returns": {
          "_0": "Returns until that name is register"
        }
      },
      "renew(uint256,uint256)": {
        "details": "Function that renew name which is currently not expiried or it is in grace period",
        "params": {
          "duration": "Period for how long name will be register for that user",
          "id": "Token ID"
        },
        "returns": {
          "_0": "Returns until that name is register"
        }
      },
      "renounceOwnership()": {
        "details": "Leaves the contract without owner. It will not be possible to call `onlyOwner` functions anymore. Can only be called by the current owner. NOTE: Renouncing ownership will leave the contract without an owner, thereby removing any functionality that is only available to the owner."
      },
      "safeTransferFrom(address,address,uint256)": {
        "details": "See {IERC721-safeTransferFrom}."
      },
      "safeTransferFrom(address,address,uint256,bytes)": {
        "details": "See {IERC721-safeTransferFrom}."
      },
      "setApprovalForAll(address,bool)": {
        "details": "See {IERC721-setApprovalForAll}."
      },
      "setController(address)": {
        "details": "Setter for controller variable",
        "params": {
          "_controller": "address of controller which can transfer, register and renew token (vanity names)"
        }
      },
      "setGracePeriod(uint256)": {
        "details": "Setter for gracePeriod variable",
        "params": {
          "_gracePeriod": "Period in which user could rebuy name, and other users couldn't buy that name (and name is expired)"
        }
      },
      "supportsInterface(bytes4)": {
        "details": "See {IERC165-supportsInterface}."
      },
      "symbol()": {
        "details": "See {IERC721Metadata-symbol}."
      },
      "tokenURI(uint256)": {
        "details": "See {IERC721Metadata-tokenURI}."
      },
      "transferFrom(address,address,uint256)": {
        "details": "See {IERC721-transferFrom}."
      },
      "transferOwnership(address)": {
        "details": "Transfers ownership of the contract to a new account (`newOwner`). Can only be called by the current owner."
      }
    },
    "version": 1
  },
  "userdoc": {
    "kind": "user",
    "methods": {},
    "version": 1
  }
}