{
  "contractName": "VanityNameController",
  "abi": [
    {
      "inputs": [
        {
          "internalType": "contract VanityNamePrices",
          "name": "_prices",
          "type": "address"
        },
        {
          "internalType": "contract VanityNameRegistrar",
          "name": "_registrar",
          "type": "address"
        },
        {
          "internalType": "uint256",
          "name": "_lockingAmount",
          "type": "uint256"
        },
        {
          "internalType": "uint256",
          "name": "_registerPeriod",
          "type": "uint256"
        },
        {
          "internalType": "uint256",
          "name": "_minCommitmentAge",
          "type": "uint256"
        },
        {
          "internalType": "uint256",
          "name": "_maxCommitmentAge",
          "type": "uint256"
        }
      ],
      "stateMutability": "nonpayable",
      "type": "constructor"
    },
    {
      "anonymous": false,
      "inputs": [
        {
          "indexed": false,
          "internalType": "string",
          "name": "name",
          "type": "string"
        },
        {
          "indexed": true,
          "internalType": "bytes32",
          "name": "label",
          "type": "bytes32"
        },
        {
          "indexed": true,
          "internalType": "address",
          "name": "owner",
          "type": "address"
        },
        {
          "indexed": false,
          "internalType": "uint256",
          "name": "cost",
          "type": "uint256"
        },
        {
          "indexed": false,
          "internalType": "uint256",
          "name": "expires",
          "type": "uint256"
        }
      ],
      "name": "NameRegistered",
      "type": "event"
    },
    {
      "anonymous": false,
      "inputs": [
        {
          "indexed": false,
          "internalType": "string",
          "name": "name",
          "type": "string"
        },
        {
          "indexed": true,
          "internalType": "bytes32",
          "name": "label",
          "type": "bytes32"
        },
        {
          "indexed": false,
          "internalType": "uint256",
          "name": "cost",
          "type": "uint256"
        },
        {
          "indexed": false,
          "internalType": "uint256",
          "name": "expires",
          "type": "uint256"
        }
      ],
      "name": "NameRenewed",
      "type": "event"
    },
    {
      "anonymous": false,
      "inputs": [
        {
          "indexed": true,
          "internalType": "address",
          "name": "prices",
          "type": "address"
        }
      ],
      "name": "NewPrices",
      "type": "event"
    },
    {
      "anonymous": false,
      "inputs": [
        {
          "indexed": true,
          "internalType": "address",
          "name": "previousOwner",
          "type": "address"
        },
        {
          "indexed": true,
          "internalType": "address",
          "name": "newOwner",
          "type": "address"
        }
      ],
      "name": "OwnershipTransferred",
      "type": "event"
    },
    {
      "inputs": [
        {
          "internalType": "bytes32",
          "name": "",
          "type": "bytes32"
        }
      ],
      "name": "commitments",
      "outputs": [
        {
          "internalType": "uint256",
          "name": "",
          "type": "uint256"
        }
      ],
      "stateMutability": "view",
      "type": "function",
      "constant": true
    },
    {
      "inputs": [],
      "name": "lockedAmountSum",
      "outputs": [
        {
          "internalType": "uint256",
          "name": "",
          "type": "uint256"
        }
      ],
      "stateMutability": "view",
      "type": "function",
      "constant": true
    },
    {
      "inputs": [
        {
          "internalType": "uint256",
          "name": "",
          "type": "uint256"
        }
      ],
      "name": "lockingAmounts",
      "outputs": [
        {
          "internalType": "uint256",
          "name": "amount",
          "type": "uint256"
        },
        {
          "internalType": "address",
          "name": "owner",
          "type": "address"
        }
      ],
      "stateMutability": "view",
      "type": "function",
      "constant": true
    },
    {
      "inputs": [],
      "name": "maxCommitmentAge",
      "outputs": [
        {
          "internalType": "uint256",
          "name": "",
          "type": "uint256"
        }
      ],
      "stateMutability": "view",
      "type": "function",
      "constant": true
    },
    {
      "inputs": [],
      "name": "minCommitmentAge",
      "outputs": [
        {
          "internalType": "uint256",
          "name": "",
          "type": "uint256"
        }
      ],
      "stateMutability": "view",
      "type": "function",
      "constant": true
    },
    {
      "inputs": [],
      "name": "owner",
      "outputs": [
        {
          "internalType": "address",
          "name": "",
          "type": "address"
        }
      ],
      "stateMutability": "view",
      "type": "function",
      "constant": true
    },
    {
      "inputs": [],
      "name": "renounceOwnership",
      "outputs": [],
      "stateMutability": "nonpayable",
      "type": "function"
    },
    {
      "inputs": [
        {
          "internalType": "address",
          "name": "newOwner",
          "type": "address"
        }
      ],
      "name": "transferOwnership",
      "outputs": [],
      "stateMutability": "nonpayable",
      "type": "function"
    },
    {
      "inputs": [
        {
          "internalType": "address",
          "name": "",
          "type": "address"
        }
      ],
      "name": "unlockedAmounts",
      "outputs": [
        {
          "internalType": "uint256",
          "name": "",
          "type": "uint256"
        }
      ],
      "stateMutability": "view",
      "type": "function",
      "constant": true
    },
    {
      "inputs": [
        {
          "internalType": "uint256",
          "name": "_lockingAmount",
          "type": "uint256"
        },
        {
          "internalType": "uint256",
          "name": "_registerPeriod",
          "type": "uint256"
        }
      ],
      "name": "setLockingParameters",
      "outputs": [],
      "stateMutability": "nonpayable",
      "type": "function"
    },
    {
      "inputs": [
        {
          "internalType": "uint256",
          "name": "_minCommitmentAge",
          "type": "uint256"
        },
        {
          "internalType": "uint256",
          "name": "_maxCommitmentAge",
          "type": "uint256"
        }
      ],
      "name": "setCommitmentAges",
      "outputs": [],
      "stateMutability": "nonpayable",
      "type": "function"
    },
    {
      "inputs": [
        {
          "internalType": "contract VanityNamePrices",
          "name": "_prices",
          "type": "address"
        }
      ],
      "name": "setPrices",
      "outputs": [],
      "stateMutability": "nonpayable",
      "type": "function"
    },
    {
      "inputs": [
        {
          "internalType": "string",
          "name": "name",
          "type": "string"
        }
      ],
      "name": "rentPrice",
      "outputs": [
        {
          "internalType": "uint256",
          "name": "",
          "type": "uint256"
        }
      ],
      "stateMutability": "view",
      "type": "function",
      "constant": true
    },
    {
      "inputs": [
        {
          "internalType": "string",
          "name": "name",
          "type": "string"
        }
      ],
      "name": "valid",
      "outputs": [
        {
          "internalType": "bool",
          "name": "",
          "type": "bool"
        }
      ],
      "stateMutability": "pure",
      "type": "function",
      "constant": true
    },
    {
      "inputs": [
        {
          "internalType": "string",
          "name": "name",
          "type": "string"
        }
      ],
      "name": "available",
      "outputs": [
        {
          "internalType": "bool",
          "name": "",
          "type": "bool"
        }
      ],
      "stateMutability": "view",
      "type": "function",
      "constant": true
    },
    {
      "inputs": [
        {
          "internalType": "string",
          "name": "name",
          "type": "string"
        },
        {
          "internalType": "address",
          "name": "owner",
          "type": "address"
        },
        {
          "internalType": "bytes32",
          "name": "secret",
          "type": "bytes32"
        }
      ],
      "name": "makeCommitment",
      "outputs": [
        {
          "internalType": "bytes32",
          "name": "",
          "type": "bytes32"
        }
      ],
      "stateMutability": "pure",
      "type": "function",
      "constant": true
    },
    {
      "inputs": [
        {
          "internalType": "bytes32",
          "name": "commitment",
          "type": "bytes32"
        }
      ],
      "name": "commit",
      "outputs": [],
      "stateMutability": "nonpayable",
      "type": "function"
    },
    {
      "inputs": [],
      "name": "withdraw",
      "outputs": [],
      "stateMutability": "nonpayable",
      "type": "function"
    },
    {
      "inputs": [
        {
          "internalType": "string",
          "name": "name",
          "type": "string"
        }
      ],
      "name": "withdrawLockedAmount",
      "outputs": [],
      "stateMutability": "nonpayable",
      "type": "function"
    },
    {
      "inputs": [],
      "name": "withdrawLockedAmountUnlocked",
      "outputs": [],
      "stateMutability": "nonpayable",
      "type": "function"
    },
    {
      "inputs": [
        {
          "internalType": "string",
          "name": "name",
          "type": "string"
        },
        {
          "internalType": "address",
          "name": "owner",
          "type": "address"
        },
        {
          "internalType": "bytes32",
          "name": "secret",
          "type": "bytes32"
        }
      ],
      "name": "register",
      "outputs": [],
      "stateMutability": "payable",
      "type": "function",
      "payable": true
    },
    {
      "inputs": [
        {
          "internalType": "string",
          "name": "name",
          "type": "string"
        }
      ],
      "name": "renew",
      "outputs": [],
      "stateMutability": "payable",
      "type": "function",
      "payable": true
    }
  ],
  "bytecode": "0x60806040523480156200001157600080fd5b506040516200184b3803806200184b8339810160408190526200003491620000f6565b6200005a6200004b640100000000620000a2810204565b640100000000620000a6810204565b60028054600160a060020a03978816600160a060020a031991821617909155600380549690971695169490941790945560049190915560055560079190915560085562000172565b3390565b60008054600160a060020a03838116600160a060020a0319831681178455604051919092169283917f8be0079c531659141344cd1fd0a4f28419497f9722a3daafe3b4186f6b6457e09190a35050565b60008060008060008060c087890312156200011057600080fd5b86516200011d8162000159565b6020880151909650620001308162000159565b6040880151606089015160808a015160a0909a0151989b929a5090989097909650945092505050565b600160a060020a03811681146200016f57600080fd5b50565b6116c980620001826000396000f3fe608060405260043610610152576000357c0100000000000000000000000000000000000000000000000000000000900480639720c223116100c8578063ce1e09c01161008c578063ce1e09c014610396578063d6c0bd71146103ac578063f14fcbc8146103cc578063f2fde38b146103ec578063f34b95b31461040c578063f49826be1461041f57600080fd5b80639720c223146102fd5780639791c09714610313578063a03eab3d14610343578063a4a9a61214610363578063aeb8ce9b1461037657600080fd5b8063715018a61161011a578063715018a6146102035780637e32447914610218578063839df945146102385780638919ab10146102655780638d839ffe146102bf5780638da5cb5b146102d557600080fd5b806309dffb31146101575780633ccfd60b1461016e57806343861c5a14610183578063443ea0fd146101a35780635b74185c146101e3575b600080fd5b34801561016357600080fd5b5061016c61043f565b005b34801561017a57600080fd5b5061016c610484565b34801561018f57600080fd5b5061016c61019e366004611247565b6104f9565b3480156101af57600080fd5b506101d06101be366004611247565b600a6020526000908152604090205481565b6040519081526020015b60405180910390f35b3480156101ef57600080fd5b5061016c6101fe3660046113c1565b61057d565b34801561020f57600080fd5b5061016c6105b5565b34801561022457600080fd5b5061016c6102333660046113c1565b6105ee565b34801561024457600080fd5b506101d0610253366004611286565b60016020526000908152604090205481565b34801561027157600080fd5b506102a2610280366004611286565b60096020526000908152604090208054600190910154600160a060020a031682565b60408051928352600160a060020a039091166020830152016101da565b3480156102cb57600080fd5b506101d060075481565b3480156102e157600080fd5b50600054604051600160a060020a0390911681526020016101da565b34801561030957600080fd5b506101d060065481565b34801561031f57600080fd5b5061033361032e366004611311565b610626565b60405190151581526020016101da565b34801561034f57600080fd5b506101d061035e366004611311565b61063b565b61016c61037136600461129f565b6106db565b34801561038257600080fd5b50610333610391366004611311565b610885565b3480156103a257600080fd5b506101d060085481565b3480156103b857600080fd5b5061016c6103c7366004611311565b61093b565b3480156103d857600080fd5b5061016c6103e7366004611286565b610a23565b3480156103f857600080fd5b5061016c610407366004611247565b610a73565b61016c61041a36600461134e565b610b28565b34801561042b57600080fd5b506101d061043a36600461134e565b610d1f565b336000818152600a6020526040808220805490839055905190929183156108fc02918491818181858888f19350505050158015610480573d6000803e3d6000fd5b5050565b600054600160a060020a031633146104ba5760405160e560020a62461bcd0281526004016104b190611515565b60405180910390fd5b60065433906108fc906104ce9030316115bf565b6040518115909202916000818181858888f193505050501580156104f6573d6000803e3d6000fd5b50565b600054600160a060020a031633146105265760405160e560020a62461bcd0281526004016104b190611515565b6002805473ffffffffffffffffffffffffffffffffffffffff1916600160a060020a0383169081179091556040517f79a2a672fa56595d47e69f9c2fee48d917fb5c5a5c902733ea687c1db3fa3f3790600090a250565b600054600160a060020a031633146105aa5760405160e560020a62461bcd0281526004016104b190611515565b600491909155600555565b600054600160a060020a031633146105e25760405160e560020a62461bcd0281526004016104b190611515565b6105ec6000610d72565b565b600054600160a060020a0316331461061b5760405160e560020a62461bcd0281526004016104b190611515565b600791909155600855565b6000600361063383610dcf565b101592915050565b6002546040517ffe2c6198000000000000000000000000000000000000000000000000000000008152600091600160a060020a03169063fe2c619890610685908590600401611480565b60206040518083038186803b15801561069d57600080fd5b505afa1580156106b1573d6000803e3d6000fd5b505050506040513d601f19601f820116820180604052508101906106d591906113a8565b92915050565b600061071c83838080601f01602080910402602001604051908101604052809392919081815260200183838082843760009201919091525061063b92505050565b9050803410156107415760405160e560020a62461bcd0281526004016104b1906114b8565b60008383604051610753929190611430565b6040519081900381206003546005547fc475abff000000000000000000000000000000000000000000000000000000008452600484018390526024840152909250600091600160a060020a039091169063c475abff90604401602060405180830381600087803b1580156107c657600080fd5b505af11580156107da573d6000803e3d6000fd5b505050506040513d601f19601f820116820180604052508101906107fe91906113a8565b90508234111561084057336108fc61081685346115bf565b6040518115909202916000818181858888f1935050505015801561083e573d6000803e3d6000fd5b505b817f3da24c024582931cfaf8267d8ed24d13a82a8068d5bd337d30ec45cea4e506ae868686856040516108769493929190611440565b60405180910390a25050505050565b8051602082012060009061089883610626565b801561093457506003546040517f96e494e800000000000000000000000000000000000000000000000000000000815260048101839052600160a060020a03909116906396e494e89060240160206040518083038186803b1580156108fc57600080fd5b505afa158015610910573d6000803e3d6000fd5b505050506040513d601f19601f820116820180604052508101906109349190611264565b9392505050565b8051602080830191909120600081815260099092526040909120600101548190600160a060020a031633148015610a0857506003546040517f96e494e800000000000000000000000000000000000000000000000000000000815260048101839052600160a060020a03909116906396e494e89060240160206040518083038186803b1580156109ca57600080fd5b505afa1580156109de573d6000803e3d6000fd5b505050506040513d601f19601f82011682018060405250810190610a029190611264565b15156001145b15610a1657610a1681610f84565b610a1e61043f565b505050565b6008546000828152600160205260409020544291610a40916115a7565b10610a605760405160e560020a62461bcd0281526004016104b19061154a565b6000908152600160205260409020429055565b600054600160a060020a03163314610aa05760405160e560020a62461bcd0281526004016104b190611515565b600160a060020a038116610b1f5760405160e560020a62461bcd02815260206004820152602660248201527f4f776e61626c653a206e6577206f776e657220697320746865207a65726f206160448201527f646472657373000000000000000000000000000000000000000000000000000060648201526084016104b1565b6104f681610d72565b6000610b35848484610d1f565b90506000610b43858361101c565b85516020808801919091206000818152600990925260409091205491925090819015610b7257610b7281610f84565b6003546005546040517ffca247ac00000000000000000000000000000000000000000000000000000000815260048101849052600160a060020a0389811660248301526044820192909252600092919091169063fca247ac90606401602060405180830381600087803b158015610be857600080fd5b505af1158015610bfc573d6000803e3d6000fd5b505050506040513d601f19601f82011682018060405250810190610c2091906113a8565b600480546000858152600960205260409020908155600101805473ffffffffffffffffffffffffffffffffffffffff1916600160a060020a038b1617905554600654919250610c6e916115a7565b60068190555086600160a060020a0316837fca6abbe9d7f11422cb6ca7629fbf6fe9efb1c621f71ce8f02b9f2a230097404f8a8785604051610cb293929190611493565b60405180910390a3600454610cc790856115a7565b341115610d155760045433906108fc90610ce187346115bf565b610ceb91906115bf565b6040518115909202916000818181858888f19350505050158015610d13573d6000803e3d6000fd5b505b5050505050505050565b82516020938401206040805180860192909252600160a060020a03939093166c01000000000000000000000000028184015260548082019290925282518082039092018252607401909152805191012090565b60008054600160a060020a0383811673ffffffffffffffffffffffffffffffffffffffff19831681178455604051919092169283917f8be0079c531659141344cd1fd0a4f28419497f9722a3daafe3b4186f6b6457e09190a35050565b8051600090819081905b80821015610f7b576000858381518110610df557610df5611620565b01602001517f0100000000000000000000000000000000000000000000000000000000000000908190040290507f8000000000000000000000000000000000000000000000000000000000000000600160f860020a031982161015610e6657610e5f6001846115a7565b9250610f68565b7fe000000000000000000000000000000000000000000000000000000000000000600160f860020a031982161015610ea357610e5f6002846115a7565b7ff000000000000000000000000000000000000000000000000000000000000000600160f860020a031982161015610ee057610e5f6003846115a7565b7ff800000000000000000000000000000000000000000000000000000000000000600160f860020a031982161015610f1d57610e5f6004846115a7565b7ffc00000000000000000000000000000000000000000000000000000000000000600160f860020a031982161015610f5a57610e5f6005846115a7565b610f656006846115a7565b92505b5082610f73816115d6565b935050610dd9565b50909392505050565b60008181526009602090815260408083208054600190910154600160a060020a0316808552600a909352922054610fbc9083906115a7565b600160a060020a0382166000908152600a602090815260408083209390935585825260099052908120908155600101805473ffffffffffffffffffffffffffffffffffffffff191690556006546110149083906115bf565b600655505050565b6007546000828152600160205260408120549091429161103c91906115a7565b11156110b35760405160e560020a62461bcd02815260206004820152603560248201527f56616e6974794e616d65436f6e74726f6c6c65723a204d696e20636f6d6d697460448201527f6d656e74206167652069736e277420706173736564000000000000000000000060648201526084016104b1565b60085460008381526001602052604090205442916110d0916115a7565b116110f05760405160e560020a62461bcd0281526004016104b19061154a565b6110f983610885565b61116e5760405160e560020a62461bcd02815260206004820152602b60248201527f56616e6974794e616d65436f6e74726f6c6c65723a204e616d65206973206e6f60448201527f7420617661696c61626c6500000000000000000000000000000000000000000060648201526084016104b1565b60008281526001602052604081208190556111888461063b565b90506004548161119891906115a7565b3410156109345760405160e560020a62461bcd0281526004016104b1906114b8565b600082601f8301126111cb57600080fd5b813567ffffffffffffffff808211156111e6576111e661164f565b604051601f8301601f19908116603f0116810190828211818310171561120e5761120e61164f565b8160405283815286602085880101111561122757600080fd5b836020870160208301376000602085830101528094505050505092915050565b60006020828403121561125957600080fd5b81356109348161167e565b60006020828403121561127657600080fd5b8151801515811461093457600080fd5b60006020828403121561129857600080fd5b5035919050565b600080602083850312156112b257600080fd5b823567ffffffffffffffff808211156112ca57600080fd5b818501915085601f8301126112de57600080fd5b8135818111156112ed57600080fd5b8660208285010111156112ff57600080fd5b60209290920196919550909350505050565b60006020828403121561132357600080fd5b813567ffffffffffffffff81111561133a57600080fd5b611346848285016111ba565b949350505050565b60008060006060848603121561136357600080fd5b833567ffffffffffffffff81111561137a57600080fd5b611386868287016111ba565b93505060208401356113978161167e565b929592945050506040919091013590565b6000602082840312156113ba57600080fd5b5051919050565b600080604083850312156113d457600080fd5b50508035926020909101359150565b6000815180845260005b81811015611409576020818501810151868301820152016113ed565b8181111561141b576000602083870101525b50601f01601f19169290920160200192915050565b8183823760009101908152919050565b606081528360608201528385608083013760006080858301015260006080601f19601f870116830101905083602083015282604083015295945050505050565b60208152600061093460208301846113e3565b6060815260006114a660608301866113e3565b60208301949094525060400152919050565b60208082526034908201527f56616e6974794e616d65436f6e74726f6c6c65723a205573657220646f65736e60408201527f27742073656e6420656e6f7567682076616c7565000000000000000000000000606082015260800190565b6020808252818101527f4f776e61626c653a2063616c6c6572206973206e6f7420746865206f776e6572604082015260600190565b60208082526033908201527f56616e6974794e616d65436f6e74726f6c6c65723a204d617820636f6d6d697460408201527f6d656e7420616765206861642070617373656400000000000000000000000000606082015260800190565b600082198211156115ba576115ba6115f1565b500190565b6000828210156115d1576115d16115f1565b500390565b60006000198214156115ea576115ea6115f1565b5060010190565b7f4e487b7100000000000000000000000000000000000000000000000000000000600052601160045260246000fd5b7f4e487b7100000000000000000000000000000000000000000000000000000000600052603260045260246000fd5b7f4e487b7100000000000000000000000000000000000000000000000000000000600052604160045260246000fd5b600160a060020a03811681146104f657600080fdfea26469706673582212205759aac21f3bc73488b4fb2fe8fe6463dda8f793ce7dd766e8d7680f9de79c0464736f6c63430008070033",
  "immutableReferences": {},
  "source": "// SPDX-License-Identifier: UNLICENSED\r\npragma solidity ^0.8.7;\r\n\r\nimport \"@openzeppelin/contracts/access/Ownable.sol\";\r\nimport \"./libraries/StringUtils.sol\";\r\nimport \"./VanityNameRegistrar.sol\";\r\nimport \"./VanityNamePrices.sol\";\r\n\r\ncontract VanityNameController is Ownable {\r\n    using StringUtils for *;\r\n\r\n    mapping(bytes32=>uint256) public commitments;\r\n\r\n    VanityNamePrices prices;\r\n    VanityNameRegistrar registrar;\r\n\r\n    // Amount that should be locked for every registration\r\n    uint256 private lockingAmount;\r\n    // Registration period\r\n    uint256 private registerPeriod;\r\n    // Sum of locked amount\r\n    uint256 public lockedAmountSum;\r\n\r\n    uint256 public minCommitmentAge;\r\n    uint256 public maxCommitmentAge;\r\n\r\n    struct LockingRecord {\r\n        uint256 amount;     // How many LP tokens the user has provided.\r\n        address owner;\r\n    }\r\n    // For every tokenId how much amount is locked (if controller has changes about lock amount)\r\n    mapping(uint256=>LockingRecord) public lockingAmounts;\r\n    // Unlocked amounts per address\r\n    mapping(address=>uint256) public unlockedAmounts;\r\n\r\n    event NameRegistered(string name, bytes32 indexed label, address indexed owner, uint cost, uint expires);\r\n    event NameRenewed(string name, bytes32 indexed label, uint cost, uint expires);\r\n    event NewPrices(address indexed prices);\r\n\r\n    constructor(VanityNamePrices _prices, VanityNameRegistrar _registrar, \r\n        uint256 _lockingAmount, uint256 _registerPeriod,\r\n        uint256 _minCommitmentAge, uint256 _maxCommitmentAge\r\n    ) {\r\n        prices = _prices;\r\n        registrar = _registrar;\r\n\r\n        lockingAmount = _lockingAmount;\r\n        registerPeriod = _registerPeriod;\r\n\r\n        minCommitmentAge = _minCommitmentAge;\r\n        maxCommitmentAge = _maxCommitmentAge;\r\n    }\r\n\r\n    /**\r\n     * @dev Setter for locking variables\r\n     * @param _lockingAmount Amount that will be locked after register name \r\n     * @param _registerPeriod Period for how long will be name register\r\n     */\r\n    function setLockingParameters(uint _lockingAmount, uint _registerPeriod) public onlyOwner {\r\n        lockingAmount = _lockingAmount;\r\n        registerPeriod = _registerPeriod;\r\n    }\r\n\r\n    /**\r\n     * @dev Setter for commitment ages\r\n     * @param _minCommitmentAge Min commitment period\r\n     * @param _maxCommitmentAge Max commitment period \r\n     */\r\n    function setCommitmentAges(uint _minCommitmentAge, uint _maxCommitmentAge) public onlyOwner {\r\n        minCommitmentAge = _minCommitmentAge;\r\n        maxCommitmentAge = _maxCommitmentAge;\r\n    }\r\n\r\n    /**\r\n     * @dev Setter for prices contract\r\n     * @param _prices Prices contract\r\n     */\r\n    function setPrices(VanityNamePrices _prices) public onlyOwner {\r\n        prices = _prices;\r\n        emit NewPrices(address(prices));\r\n    }\r\n\r\n    /**\r\n     * @dev Get price for specified name\r\n     * @param name Name for which it should be get price\r\n     */\r\n    function rentPrice(string memory name) view public returns(uint) {\r\n        return prices.price(name);\r\n    }\r\n\r\n     /**\r\n     * @dev Get is name valid\r\n     * @param name Name that should be check is valid\r\n     */\r\n    function valid(string memory name) public pure returns(bool) {\r\n        return name.strlen() >= 3;\r\n    }\r\n\r\n    /**\r\n     * @dev Check is specified name available\r\n     * @param name Name that should be check is available\r\n     */\r\n    function available(string memory name) public view returns(bool) {\r\n        bytes32 label = keccak256(bytes(name));\r\n        return valid(name) && registrar.available(uint256(label));\r\n    }\r\n\r\n    /**\r\n     * @dev Make commitment how to prevent front-run\r\n     * @param name Name that should be check is available\r\n     * @param owner Owner for chosen name\r\n     * @param secret Secret value \r\n     */\r\n    function makeCommitment(string memory name, address owner, bytes32 secret) pure public returns(bytes32) {\r\n        bytes32 label = keccak256(bytes(name));\r\n        return keccak256(abi.encodePacked(label, owner, secret));\r\n    }\r\n\r\n    /**\r\n     * @dev Commit chosen name, how no one could picked in maxCommitmentAge time\r\n     * @param commitment Name that should be check is available\r\n     */\r\n    function commit(bytes32 commitment) public {\r\n        require(commitments[commitment] + maxCommitmentAge < block.timestamp, \"VanityNameController: Max commitment age had passed\");\r\n        commitments[commitment] = block.timestamp;\r\n    }\r\n\r\n    /**\r\n     * @dev Withdraw amounts that are payed for names\r\n     */\r\n    function withdraw() public onlyOwner {\r\n        payable(msg.sender).transfer(address(this).balance - lockedAmountSum);        \r\n    }\r\n\r\n    /**\r\n     * @dev Withdraw locked amount from expired name\r\n     * @param name Name for which should be withdraw lockedAmount + unlocked amounts from others tokens which are unlocked\r\n     */\r\n    function withdrawLockedAmount(string memory name) public {\r\n        bytes32 label = keccak256(bytes(name));\r\n        uint256 tokenId = uint256(label);\r\n\r\n        // Unlock amount for current tokenId (if it was from msg.sender and currently is available)\r\n        if (lockingAmounts[tokenId].owner == msg.sender && registrar.available(tokenId) == true) {\r\n            _unlockedAmount(tokenId);\r\n        }\r\n\r\n        withdrawLockedAmountUnlocked();    \r\n    }\r\n\r\n    /**\r\n     * @dev Withdraw locked amount that other users unlocked\r\n     */\r\n    function withdrawLockedAmountUnlocked() public {\r\n        uint256 amountForUnlock = unlockedAmounts[msg.sender];\r\n        unlockedAmounts[msg.sender] = 0;\r\n        payable(msg.sender).transfer(amountForUnlock);      \r\n    }\r\n\r\n    /**\r\n     * @dev Register specified name on registerPeriod\r\n     * @param name Name that should be register\r\n     * @param owner Owner that register name\r\n     * @param secret Secret value \r\n     */\r\n    function register(string memory name, address owner, bytes32 secret) public payable {\r\n        bytes32 commitment = makeCommitment(name, owner, secret);\r\n        uint cost = _consumeCommitment(name, commitment);\r\n\r\n        bytes32 label = keccak256(bytes(name));\r\n        uint256 tokenId = uint256(label);\r\n\r\n        // Return locking amount if user for this token still hasn't unlock amount\r\n        if (lockingAmounts[tokenId].amount > 0) {\r\n            _unlockedAmount(tokenId);\r\n        }\r\n\r\n        uint expires = registrar.register(tokenId, owner, registerPeriod);\r\n        \r\n        lockingAmounts[tokenId].amount = lockingAmount;\r\n        lockingAmounts[tokenId].owner = owner;\r\n        lockedAmountSum = lockedAmountSum + lockingAmount;\r\n\r\n        emit NameRegistered(name, label, owner, cost, expires);\r\n\r\n        // Refund any extra payment\r\n        if(msg.value > cost + lockingAmount) {\r\n            payable(msg.sender).transfer(msg.value - cost - lockingAmount);\r\n        }\r\n    }\r\n\r\n    /**\r\n     * @dev Renew specified name on registerPeriod\r\n     * @param name Name that should be renew\r\n     */\r\n    function renew(string calldata name) external payable {\r\n        uint cost = rentPrice(name);\r\n        require(msg.value >= cost, \"VanityNameController: User doesn't send enough value\");\r\n\r\n        bytes32 label = keccak256(bytes(name));\r\n        uint expires = registrar.renew(uint256(label), registerPeriod);\r\n\r\n        if(msg.value > cost) {\r\n            payable(msg.sender).transfer(msg.value - cost);\r\n        }\r\n\r\n        emit NameRenewed(name, label, cost, expires);\r\n    }\r\n\r\n    function _consumeCommitment(string memory name, bytes32 commitment) internal returns (uint256) {\r\n        // Require a valid commitment\r\n        require(commitments[commitment] + minCommitmentAge <= block.timestamp, \"VanityNameController: Min commitment age isn't passed\");\r\n\r\n        // If the commitment is too old, or the name is registered, stop\r\n        require(commitments[commitment] + maxCommitmentAge > block.timestamp, \"VanityNameController: Max commitment age had passed\");\r\n        require(available(name), \"VanityNameController: Name is not available\");\r\n\r\n        delete(commitments[commitment]);\r\n\r\n        uint cost = rentPrice(name);\r\n        require(msg.value >= cost + lockingAmount, \"VanityNameController: User doesn't send enough value\");\r\n\r\n        return cost;\r\n    }\r\n\r\n    function _unlockedAmount(uint256 tokenId) private {\r\n        uint256 amountForUnlock = lockingAmounts[tokenId].amount;\r\n        address previousLockingAmountOwner = lockingAmounts[tokenId].owner;\r\n        unlockedAmounts[previousLockingAmountOwner] = unlockedAmounts[previousLockingAmountOwner] + amountForUnlock;\r\n        lockingAmounts[tokenId].amount = 0;\r\n        lockingAmounts[tokenId].owner = address(0x0);\r\n        lockedAmountSum = lockedAmountSum - amountForUnlock;\r\n    }\r\n}",
  "sourcePath": "D:\\Posao-Stefan\\Stefan-razno\\Blockchain\\AdvancedBlockchain\\VanityNames\\contracts\\VanityNameController.sol",
  "compiler": {
    "name": "solc",
    "version": "0.8.7+commit.e28d00a7.Emscripten.clang"
  },
  "schemaVersion": "3.4.3",
  "updatedAt": "2021-09-20T13:04:36.361Z",
  "networkType": "ethereum",
  "devdoc": {
    "kind": "dev",
    "methods": {
      "available(string)": {
        "details": "Check is specified name available",
        "params": {
          "name": "Name that should be check is available"
        }
      },
      "commit(bytes32)": {
        "details": "Commit chosen name, how no one could picked in maxCommitmentAge time",
        "params": {
          "commitment": "Name that should be check is available"
        }
      },
      "makeCommitment(string,address,bytes32)": {
        "details": "Make commitment how to prevent front-run",
        "params": {
          "name": "Name that should be check is available",
          "owner": "Owner for chosen name",
          "secret": "Secret value "
        }
      },
      "owner()": {
        "details": "Returns the address of the current owner."
      },
      "register(string,address,bytes32)": {
        "details": "Register specified name on registerPeriod",
        "params": {
          "name": "Name that should be register",
          "owner": "Owner that register name",
          "secret": "Secret value "
        }
      },
      "renew(string)": {
        "details": "Renew specified name on registerPeriod",
        "params": {
          "name": "Name that should be renew"
        }
      },
      "renounceOwnership()": {
        "details": "Leaves the contract without owner. It will not be possible to call `onlyOwner` functions anymore. Can only be called by the current owner. NOTE: Renouncing ownership will leave the contract without an owner, thereby removing any functionality that is only available to the owner."
      },
      "rentPrice(string)": {
        "details": "Get price for specified name",
        "params": {
          "name": "Name for which it should be get price"
        }
      },
      "setCommitmentAges(uint256,uint256)": {
        "details": "Setter for commitment ages",
        "params": {
          "_maxCommitmentAge": "Max commitment period ",
          "_minCommitmentAge": "Min commitment period"
        }
      },
      "setLockingParameters(uint256,uint256)": {
        "details": "Setter for locking variables",
        "params": {
          "_lockingAmount": "Amount that will be locked after register name ",
          "_registerPeriod": "Period for how long will be name register"
        }
      },
      "setPrices(address)": {
        "details": "Setter for prices contract",
        "params": {
          "_prices": "Prices contract"
        }
      },
      "transferOwnership(address)": {
        "details": "Transfers ownership of the contract to a new account (`newOwner`). Can only be called by the current owner."
      },
      "valid(string)": {
        "details": "Get is name valid",
        "params": {
          "name": "Name that should be check is valid"
        }
      },
      "withdraw()": {
        "details": "Withdraw amounts that are payed for names"
      },
      "withdrawLockedAmount(string)": {
        "details": "Withdraw locked amount from expired name",
        "params": {
          "name": "Name for which should be withdraw lockedAmount + unlocked amounts from others tokens which are unlocked"
        }
      },
      "withdrawLockedAmountUnlocked()": {
        "details": "Withdraw locked amount that other users unlocked"
      }
    },
    "version": 1
  },
  "userdoc": {
    "kind": "user",
    "methods": {},
    "version": 1
  }
}